:020000040800F2
:10000000E807002035020008D1320008412C000822
:10001000CD3200084D1A0008E5320008000000004B
:10002000000000000000000000000000D9320008BD
:10003000511A000800000000D5320008DD32000827
:100040004F0200084F0200084F0200084F0200084C
:100050004F0200084F0200084F0200084F0200083C
:100060004F0200084F0200084F0200084F0200082C
:100070004F0200084F0200084F0200084F0200081C
:100080004F0200084F0200084F0200084F0200080C
:100090004F0200084F0200084F0200084F020008FC
:1000A0004F0200084F0200084F0200084F020008EC
:1000B0004F0200084F020008000000004F02000835
:1000C0004F02000800000000000000004F0200087E
:1000D000000000004F0200084F020008000000006E
:1000E0004F0200084F0200084F02000800F002F81B
:1000F00000F091F814A696E8000CB244B344DA4537
:1001000001D100F088F8BAE80F000FA696E8300099
:10011000A5EB040504EB0607AAEB0704A7F101070A
:100120004FEA15154FEA3414A4F10104AC4201D38F
:1001300000F071F813F0010F18BFFB1A43F0010330
:1001400000F001F8DBE7184790460000B0460000D9
:10015000103A24BF78C878C1FAD8520724BF30C8F3
:1001600030C144BF04680C60704700007047000055
:100170000023002400250026103A28BF78C1FBD8B0
:10018000520728BF30C148BF0B6070476E2900F08E
:100190002F81702900F0FC81662904F0938269297F
:1001A00000F0EA80642900F0E780752900F0E4801F
:1001B0006F2900F08F81782900F0DD810368DB0969
:1001C00028BF41F08001632900F04185732900F0C8
:1001D0004685E32900F06485F32900F06985002055
:1001E00070471FB59DE8030001F0F8F900F090FD9D
:1001F00004000020002103F0FFFE401C606000208E
:10020000002103F0E3FEE06000F082FE1FBD10B5A8
:1002100000F0E7FE10BD00F01BFF1146FFF7E1FF05
:1002200003F04CF901F012F903B4FFF7F0FF03BC3F
:1002300001F052FB0948804709480047FEE7FEE706
:10024000FEE7FEE7FEE7FEE7FEE7FEE7FEE7FEE786
:1002500004480549054A064B70470000E132000892
:10026000ED000008E8010020E8070020E803002076
:10027000E80300200FB4044910B503AA029800F067
:10028000F3FC10BC5DF814FB6C0000200FB41CB52F
:10029000074B06AA7B4469460090059800F0B5FC20
:1002A0000020694600F0C4FC1CBC5DF814FB000093
:1002B0009909000070B5044685690068C10601D53A
:1002C000302600E02026C00707D070BDD4E9012108
:1002D00030469047206A401C20626D1EF6D570BDE6
:1002E00070B5044685690078C00707D170BDD4E9B0
:1002F000012120209047206A401C20626D1EF6D507
:1003000070BD09684A0501D540B27047C905FCD5E2
:1003100000B2704709684A0501D5C0B27047C905E7
:10032000FCD580B2704770B50C460546012A05D051
:100330002878800600D5EA69002302E0012305E061
:100340005B1C934202D2E05C0028F9D1A869E61850
:10035000C01AA861286A184428622846FFF7AAFF35
:1003600004E0D5E9012114F8010B9047B442F8D319
:100370002846FFF7B5FF70BD2DE9F0410646002481
:1003800010687529314616A510D0FFF7BAFF00286E
:1003900002DA404213A507E031688A0701D512A5A9
:1003A00002E0490704D511A5012401E0FFF7B2FFDF
:1003B00000210A2206F1240709E0B0FBF2FCB0FBA1
:1003C000F2F302FB1C00303078541846491C002818
:1003D000F3D123462A463046BDE8F04100F0A9B9E2
:1003E000000000002D0000002B0000002000000095
:1003F00011680268006A530501D508700AE0D30548
:1004000001D5088006E0130603D5C217C1E9000232
:1004100000E00860012070472DE9FF5F15468A461D
:100420000446DFF8AC80F8440027D8E900103E46C7
:10043000CDE9001010E03AF816106A4602A800F064
:100440003BFC411C07D02178890603D5E2693918A5
:1004500091420DD80744761C2078800602D5E069C9
:10046000B84205DDAE42E6DB3AF816000028E2D1DC
:10047000A069C01BA0612046FFF71CFFD8E900104F
:10048000CDE90010002017E03AF818106A4602A8DB
:1004900000F012FCB0F1FF3F81460BD000250DF1BA
:1004A000080B05E0D4E901211BF8050090476D1CFD
:1004B0004D45F7D308F10100B0428046E4DB206AE5
:1004C000384420622046FFF70BFFBDE8FF9F000085
:1004D0009E42000070B5044621461068FFF71AFFDF
:1004E000002104F1240505E000F007023032C008C5
:1004F0006A54491C0028F7D12068002308A2050788
:1005000008D500F02000084304D0E069012305A2CB
:10051000401EE0612046BDE8704000F00AB90000CE
:100520000000000030000000F0B40D46018809050D
:1005300002D51B4C7C4402E0194C7C440E34002153
:1005400000F1240305E002F00F061209A65D5E54D7
:10055000491C002AF7D102780023120704D5702D18
:1005600006D009B1022311342246F0BC00F0E1B8F4
:1005700001231034F8E770B504460D462146106893
:10058000FFF7C8FE024629462046BDE87040CBE78B
:100590000368126843F0200303600823C361C3E7C4
:1005A000984100002DE9F05F894604464FF0000AAB
:1005B000DFF874B1FB44C0F820A02046E16888470A
:1005C000002874D0252806D0D4E901219047206A5C
:1005D000401C2062F1E700265F462046E16888471C
:1005E0002028054607DB312D05D2781910F8200C9C
:1005F00008B10643F1E7B00701D526F00406C4F8B8
:100600001CA00027C4F818A02A2D09D0284603F002
:10061000C7FC38B304EB8708303DC8F8185019E020
:1006200059F8041B204604EB87029161E168884772
:10063000012F054618D1E069002820DA26F02006AF
:100640001DE0D8F8180000EB800005EB40003038C2
:10065000C8F818002046E1688847054603F0A0FC6A
:100660000028EED1012F0AD02E2D08D12046E168B6
:1006700088477F1C0546022F46F02006C4DBA06990
:10068000002803DA404246F00106A061F00701D0DD
:1006900026F010066C2D0BD0682D09D04C2D39D0CA
:1006A0006A2D35D0742D35D07A2D33D016E038E050
:1006B000E1682F4620468847B842054609D16C2F8D
:1006C00026D04FF48060E1680643204688470546FF
:1006D00004E06C2F1AD04FF4807006430DB3A5F1DF
:1006E0004100192802D8203546F400664A462946BA
:1006F000204626604E46FFF749FD80B101280BD009
:10070000F61D26F0070000F1080956E74020E4E74F
:100710008020D8E70020D6E706F104094DE72846F7
:1007200052E7206ABDE8F09F4041000070477047E3
:1007300070472DE9F0470D4699469246044600F170
:1007400024080168880604D5E06921F010012160C1
:1007500000E00120A84201DD471B00E00027A1695D
:100760007A1902EB0900081AA0612078C00602D4A9
:100770002046FFF79FFD002608E0D4E901211AF882
:1007800006009047206A401C761C20624E45F4DB30
:100790002078C0060AD52046FFF78CFD06E0D4E994
:1007A000012130209047206A401C2062381EA7F1AA
:1007B0000107F4DC07E0D4E9012118F805009047AF
:1007C000206A401C2062281EA5F10105F3DC2046AA
:1007D000FFF786FD2078000602D50220BDE8F087ED
:1007E0000120FBE72DE9FF4F0C461E464FF0FF3777
:1007F0008BB0D2E90001DDF860800A908A46C1F32F
:100800000A5505B93D46002108464FF00000BAF1EF
:10081000000F00F4400005DA00EB80004FF44001C7
:1008200001EA50004FEA9059B9F1010F00DDB946D5
:100830000A9850EA4A000ED044F61050A5F2FF354F
:1008400045432F14B8F1000F1ED07542291E1EDD3E
:10085000C9F100021CE0B8F1010F4FF0000001D017
:10086000302103E0F24305E02154401CB042FBDBA1
:1008700030460022002121540B99C1F80880C1E9BB
:1008800000200FB0BDE8F08FBD1B6D1CDEE74A46AF
:1008900000DA694206A800F0C5FA06AB93E8070043
:1008A00003AB83E8070050460A9902F09DFF8DE8EC
:1008B0000700A0F500501F3800900398002D0ADDB6
:1008C00042F21F014A460844002303A903906846E8
:1008D00003F006FA09E0A0F500504A461F3800234D
:1008E00003A90390684603F010FA8DE8070000049E
:1008F000000C03D04FF0FF30410800E01046B8F183
:10090000000F03D00022009215461EE0751E05D48C
:1009100000F002FA303262556D1EF9D5B34601225D
:10092000084302D000227F1C04E02078302801D147
:1009300000227F1E002A099784D01DE0112D07DABE
:1009400000F0EAF9303262556D1C50EA0102F5D12F
:10095000084302D00098C8B10EE00021681E05E0EF
:10096000235C625C63542254401E491C8142F7DBC5
:10097000AB46A81B401E0990002004F80B000B9802
:10098000099AC0F80880C0E9002B7AE711264FF0D9
:10099000000857E72DE9F04F88460446D21D22F0A3
:1009A000070191B0D1E90001CDE90A0103F0E4FAB1
:1009B00002460B98C00F01D02D2007E02068810768
:1009C00001D52B2002E0202101EAC000032A099072
:1009D00001D0072A05DB03464146204600F0E2F934
:1009E0000BE12078800601D5E06900E00620B8F12F
:1009F000650F814606D0B8F1660F18D0B8F1670FC1
:100A000070D131E00020B9F1110F009001DB11230A
:100A100001E009F101030AAA01A90CA8FFF7E2FE0F
:100A2000DDE90C70002609F10105834647E001204D
:100A30004B4600904FF000470AAA01A90CA8FFF707
:100A4000D1FEDDE90DB00C995D46002610B909F123
:100A500001000D18B9EB050003D4C0F1FF3609F110
:100A60000105A5EB09002BE0B9F1010F01DA4FF008
:100A700001090020B9F1110F0090484601DD112352
:100A800000E003460AAA01A90CA8FFF7ABFEDDE9C6
:100A90000C704D4600268346207800070AD4AB45EB
:100AA00000DA5D4601A8012D04DD411911F8011C91
:100AB000302907D04F4502DA17F1040F04DA01207C
:100AC00082460FE06D1EEEE7002F02DCED1B3E4478
:100AD00003E0781CA84200DD7D1CB81B00F1010A70
:100AE0004FF000472078000703D4AA4501DB4FF000
:100AF000FF3A0021B7F1004F0DF143088DF8431084
:100B000024D002202B23002F01DA7F422D230A213B
:100B1000021EA0F1010000DC5FB197FBF1FC97FB26
:100B2000F1F201FB1C7C17460CF1300C08F801CDEA
:100B3000EEE7A8F1010003702188090501D54521E0
:100B400000E06521A0F1010800F8011C09980FA937
:100B5000A1EB0807FF1D00B10120411901EBEA706C
:100B6000A1693844081A401EA0612078C00602D44A
:100B70002046FFF79FFB099828B1D4E9012190474F
:100B8000206A401C20622078C00622D52046FFF74C
:100B900091FB1EE0002E04DBB34502DD01A8805D61
:100BA00000E03020D4E901219047206A401C2062F7
:100BB000761CAAF101005FEA000A0AD100F0A8F849
:100BC000C0680168405CD4E901219047206A401C5C
:100BD0002062281EA5F10105DCDC07E0D4E9012133
:100BE00018F8010B9047206A401C2062381EA7F1BC
:100BF0000107F3DC2046FFF773FB032011B041E649
:100C000001694A1C02610878704700B58FB0CDE9D0
:100C100001310021059105497944CDE903101146C0
:100C20006846FFF7BFFC0FB000BD0000E5FFFFFF07
:100C30000A6802F8010B0A60704710B5436913B1E6
:100C4000AFF3008001E0FFF76EFB012010BD1278CA
:100C500000F124010A7000224A700122EDE71168B8
:100C60004FF0FF32E9E70000074B70B50D467B44BB
:100C7000FFF7CBFF0446284600F046F910B14FF0CD
:100C8000FF3070BD204670BD3D33000010B5436994
:100C900013B1AFF3008001E0FFF7BEFB012010BDF0
:100CA000128800F1240182840022C2840122EDE72F
:100CB00011684FF0FF32E9E72DE9F04116460C4686
:100CC000054600F01DF8036893F80101012807D0DC
:100CD000FF2C12D8185D80B101202C70BDE8F08186
:100CE000D3F807013246214603F20713C7182846F6
:100CF000BC46BDE8F041002360474FF0FF30EDE710
:100D000010B500F005F8001D10BD00BFED32000069
:100D1000004870473401002030B5B0F10A0271F18B
:100D200000034FEA900E4EEA817EB0EB0E0061EBBD
:100D300091014FEA101E4EEA017E10EB0E0041EBCE
:100D400011114FEA102E4EEA016E10EB0E0041EB2E
:100D500011214FEA104E4EEA014E10EB0E0041EB0E
:100D60001141401841F100014FEAD00040EA4170C2
:100D70004FEAD1014FEA810444EA907410EB8005F8
:100D800044EB01046D1944EB0404521BA3414FF0E2
:100D9000000348BF0A3200D530BD401C41F10001BC
:100DA00030BD00002DE9F0411F46044603260168CE
:100DB000072A01F4006004DB08B116A505E016A5BA
:100DC00003E008B115A500E015A521F01000206092
:100DD000A069C01EA0610FB1401EA0612046FFF7B0
:100DE00069FA4FB1D4E9012138469047206A401C86
:100DF0002062C01C206206E0206AFAE7D4E90121E3
:100E000015F8010B9047761EF8D22046FFF768FAD6
:100E1000BDE8F0814E414E006E616E00494E4600C5
:100E2000696E66002DE9F047814616468AB035485E
:100E300078440DC88DE80D0032487844801C03AC1E
:100E40000DC884E80D0041F69B300844372190FB23
:100E5000F1F290FBF1F5A5F1800501FB12041B3CBA
:100E600002D56442012000E00020DFF898A080460F
:100E70000027FA44AAF1BE0A0EE0E0070AD0324683
:100E8000684607EB470101230AEB810102F03DFFB1
:100E90008DE8070064107F1C002CEED1194F7F44B1
:100EA000AE3F19E0E80715D007EB04100DF1180A62
:100EB00090E80E008AE80E00C068F04201D198194F
:100EC00008903246012306A903A802F01EFF03ABD7
:100ED00083E807006D10641C002DE3D14FF001037F
:100EE00032466946B8F1000F03A802D002F0F8FEBE
:100EF00001E002F00AFFC9E90001C9F808200AB0C0
:100F0000BDE8F08754390000007B00F08000704796
:100F100010B54248542100F0A9FA4148542100F08C
:100F2000A5FA4048542100F0A1FA3F493B483C4A09
:100F30003F4B08603D490A603A491960531C0365FC
:100F4000481C1065012008653B48344A39A17844A3
:100F500000F0DEF920B9384878440A3800F07FFA0A
:100F600037482F4A35A1784400F0D2F920B93448E7
:100F700078440A3800F073FA32482A4A2FA178449C
:100F800000F0C6F920B92F4878440A3800F067FA13
:100F900040232248DC000021224600F096F920B1CF
:100FA00025487844543800F05AFA1D482246402318
:100FB000002100F08AF920B121487844543800F02B
:100FC0004EFA184822461023002100F07EF900282E
:100FD00006D01C487844BDE81040563800F03FBAAF
:100FE00010BD104870B5006D20F001040B4800F0F2
:100FF00007FA0B4800F004FA0A4800F001FA09E089
:10100000206D20F00105204600F0FAF9204600F09E
:1010100044F82C46002CF3D170BD000018000020CD
:101020006C000020C0000020000000200400002010
:1010300008000020720000004E3800007700000019
:101040003A3800002638000000487047140100209C
:101050007546FFF7F9FFAE4605006946534620F096
:101060000700854618B020B5FFF7F2F8BDE820402C
:101070004FF000064FF000074FF000084FF0000B54
:10108000AC46ACE8C009ACE8C009ACE8C009ACE8C3
:10109000C00921F007018D46704770B50446051F51
:1010A00000F080FA0068002C14BF446870BD002C6A
:1010B00018BFAC423CBF20466468F8D301680A18E8
:1010C000AA4218BF456003D12A6805461144016051
:1010D00028684119A1421CBF6C6070BD61686960DD
:1010E00021680844286070BD2DE9F05F0546174669
:1010F0000C46C86820F4201040F48000C8608006C8
:1011000002D5084600F0A7FBE06841F282014FF0EB
:10111000FF3A0140022903D0204600F039FBB9E034
:1011200000F42041B1F5004F0FD1C00306D561682E
:10113000E06A884200D80846606006E02069E06204
:101140006060606900F027FAA061A0680022EEB23A
:1011500000280DDAE1688B050AD4C043A06041F491
:1011600090302260E0606068411C61600670AAE017
:10117000E0689146226040F40050E060206978BB4E
:10118000606900F0FAF904F124054FF00108A8B1F4
:10119000A08910F4407F08D0E06900F04EFA206189
:1011A00018B1E06840F4006017E0C4F81C802561C5
:1011B000E06820F4407040F480600EE0E06900F0E8
:1011C0003CFA00282061F0D0E06840F4006010F4A0
:1011D000407FE06002D140F48070E0602069606090
:1011E000E06825696FF0010BC1051ED56168E06AF2
:1011F000884200D80846411B04D02246284600F009
:10120000D1FAE8BB1FB1E562C4E9015959E0681C95
:10121000E0626060E069401EA060E06840F48030F9
:10122000E06030462E70BDE8F09F17B100F48032C8
:101230000AE06068411C61600670E0680A2E40F4B4
:101240008030E06006D00022E16A6068814203D904
:101250000B4602E00122F7E70346B4F80CC05B1B23
:101260005FEA4C5C04D4D4F81CC09C4500DD02B39A
:10127000814200D80146002BA1EB0008E56200E0A6
:1012800008E0C4E9015907DD22461946284600F066
:1012900089FA08B15046C6E7B8F1000F09D0A16934
:1012A000E5626560A1EB0800A061E06840F0100015
:1012B000E06047B16168A069E562491B0844656068
:1012C000A0615846AFE73046ADE770B5C468A507E2
:1012D00013D0650211D4B2F5807F09D0B2F5007F3A
:1012E00006D0B2F5806F08D1012300F1240106E099
:1012F0005D1E6FF07F46B54201D3012070BD0161D4
:10130000C361416024F470611143C160002070BD6D
:101310002DE9F0410C461646070047D0104600F074
:101320006FF82078611C61280AD0722802D07728D3
:101330003CD102E00125002405E00225042402E05E
:10134000082448F2020511F8010B2B2806D0622868
:1013500009D011F8010C74280AD00BE045F0030500
:1013600044F00204EFE745F0040544F00104EAE725
:1013700044F010043846214600F0E0F8411C15D036
:101380000021316171604FF40071F560F1617061AD
:10139000200704D530460222002100F07DF9306D8F
:1013A00040F0010030653046BDE8F0810020FBE7E9
:1013B0002DE9F0410D460646104C206DC10704D0C2
:1013C000410804D020F00104F7E722460EE0542043
:1013D00000F033F907000ED0206D47F001010843FB
:1013E00054212065384600F041F83A4629463046F7
:1013F000BDE8F0418CE70020D6E70000180000208F
:101400002DE9F04704464FF0FF380026C568D4E9BF
:101410000497A80718D0204600F0FAF9384600F0E3
:1014200097F8002800DA4646280502D54846FFF717
:1014300034FE4C21204600F019F8206D20F0010008
:1014400020653046BDE8F0874046FBE710B504460E
:10145000AFF300802046BDE81040FEF7E5BE10B5B2
:1014600000F020FABDE8104000F016BA4FF000027C
:1014700000B5134694469646203922BFA0E80C508A
:10148000A0E80C50B1F12001BFF4F7AF090728BF65
:10149000A0E80C5048BF0CC05DF804EB890028BFE1
:1014A00040F8042B08BF704748BF20F8022B11F00A
:1014B000804F18BF00F8012B704700004FF0013C2F
:1014C00050F8042B51F8043B9A4221D1A2EB0C03B3
:1014D000934313EACC1317D150F8042B51F8043B73
:1014E0009A4215D1A2EB0C03934313EACC130BD110
:1014F00050F8042B51F8043B9A4209D1A2EB0C039B
:10150000934313EACC13DBD04FF00000704700BFC9
:10151000D01A01BAB1FA81F101F0180122FA01F0F2
:10152000CB40DBB2C0B2C01AC1F120012CFA01F3EA
:10153000D11A914311EAC311E6D170470EB5CDE936
:10154000000100F031FA029069460120ABBE0EBDE9
:1015500008B5694600900220ABBE08BD1FB58DE8F6
:10156000070069460520ABBE04B010BD1FB58DE86D
:101570000F0069460620ABBEF6E708B56946009045
:101580000920ABBE08BD1CB5CDE9000169460A20A3
:10159000ABBE1CBD704708B5694600900C20ABBEC1
:1015A00008BD0000004870471C01002070477047CC
:1015B0007047704738B504460A4600206946AFF3C5
:1015C0000080002808BF38BD02460099204600F080
:1015D00090F9012038BD012000F0DFB9F8B5AFF374
:1015E0000080054600200C460C2000BF0646A819C6
:1015F000A0420DD9324669460020AFF300800700B3
:1016000008BF00F0CAF90098A04218BF0546C419E7
:10161000FFF7C8FF05600746F01D20F007004619D8
:10162000284600F060F9B44208BFF8BDA21B31465D
:101630003868BDE8F84000F05CB970B50646FFF7C1
:10164000B1FF056806F10B0020F00704B4429CBF0F
:10165000002070BD2B466A68BAB11068A04210D352
:1016600004F1080188423CBF5068586007D35168B4
:10167000101941601168091B016058601460101D49
:1016800070BD13465268002AE7D121462846FFF76D
:1016900091FF0028DED170BD2DE9F04104461646C9
:1016A0000D464769007B80072ED03846FFF765FF5F
:1016B00050BB3EB3012E02D0022E25D104E02046BD
:1016C00000F031F905441DE03846FFF764FFE1689A
:1016D000002841F01001E16005DA204600F058F8DA
:1016E0000120BDE8F081C9030BD56268E16A91422F
:1016F00000D81146A26911442269891A814200DD8D
:1017000008460544002D01DA0220EAE7E16A606834
:10171000E268814206D29103E06203D522F40031EF
:1017200041F01002A6690027AE4213DCE16A814253
:1017300001D90B4600E0034603EB060C2369ACEB32
:10174000030CAC4506DD814201D98C4600E084469D
:101750009C4505D1A760276042F02000A5620DE0FE
:10176000AD1BE669AE1B8142A66000D90846C01ACF
:10177000281A20605819606022F0200003490840B0
:10178000E060002084F84870ABE70000BFCFD7FFCF
:10179000C16821F4001141F08001C1600021816025
:1017A000016070472DE9F74F15460C464FF0FF3B9F
:1017B0003848D768D2F814A0074209D05046A96922
:1017C000FFF7E1FE002819DB3248C0430740EF6015
:1017D0004FF000496FF000484C4501D3464600E009
:1017E000264600993B4650463246FFF7B7FEA969A8
:1017F00020F00042B21A1144A96128B12846FFF72F
:10180000C7FF5846BDE8FE8FA41BE5D10020F9E7CD
:1018100070B504460569C06A6168884200D8084608
:10182000E16821F42011E160C90312D5A84208D073
:101830002246411B2846FFF7B5FF10B14FF0FF309D
:1018400070BD0020E562C4E90150E06820F48030FA
:10185000E060002070BD10B50446C06820F0200094
:10186000E060A16AA06988420DD02046FFF7D0FF52
:10187000E06820F4405040F01000E060A06AA061F1
:101880002069E062606044F24001E0688843E06003
:1018900010BD000010000200002801D000F01CB8AC
:1018A0007047000010B5014602A000F05DF801206D
:1018B00010BD000053494752545245443A205265E6
:1018C0006469726563743A2063616E2774206F7077
:1018D000656E3A200000000001491820ABBEFEE70B
:1018E00026000200704700210160416070470C2013
:1018F0007047034640688C46002818BF88423CBFAA
:1019000003464068F8D318681844884207D00CF1A1
:10191000030020F00700001D411A521A0146081D5D
:101920000A60FFF7BABB10B50146C268900703D042
:10193000900607D5886A0AE000F05CF80121016092
:10194000881E10BD8B69486818440B69C01A91F84D
:1019500048301BB191F84910401A10BD1103FCD555
:101960000028FADD401E10BD70B505460C460A2061
:1019700000E06D1C00F037F835B128780028F8D168
:1019800002E0641C00F02FF814B120780028F8D190
:10199000BDE870400A2000F026B810B500F02EF81F
:1019A000BDE81040FFF778BF10B5431C02E010F807
:1019B000011B71B18107FAD14FF0013202C88C1AB4
:1019C0008C4314EAC211F9D0C01A0A0603D0C01E13
:1019D00010BDC01A10BD0A0401D0801E10BD09023E
:1019E000FCD0401E10BD08B569468DF800000320EC
:1019F000ABBE08BD004870471401002010B5012897
:101A000005D0002103A0FFF7AFFF012010BD09A101
:101A1000F8E7000053494752544D454D3A204F7561
:101A200074206F662068656170206D656D6F7279D6
:101A3000000000003A2048656170206D656D6F728E
:101A40007920636F7272757074656400FEE7000040
:101A500070470000B0B5044600F010F9054640F2AA
:101A60000C00C2F200000078611C18BF044400BFE3
:101A700000F004F9401BA042FAD3B0BD2DE9F04FAD
:101A800082B00E68002E00F0F58041F20002C4F230
:101A90000102032340F2004E904208BF02234FF69A
:101AA000FF7CC4F2010E009300240123C1F2100C4C
:101AB0004FF0000B4FF000094BE000BF40F6004232
:101AC000C4F20102009F904208BF012704F00C03FA
:101AD0000F229A402AEA020207FA03F34FEA9B0513
:101AE0001A4346F825204E6840F20C45F202DEF813
:101AF000082054BF22EA080242EA0802C4F20105A3
:101B0000CEF808202A68B30254BF22EA080242EA4B
:101B100008022A60B303DEF8042054BF22EA080258
:101B200042EA0802F303CEF80420DEF800204FF06A
:101B3000010354BF22EA080242EA0802CEF800205C
:101B40000E680BF1010B36FA0BF204F1040400F0FD
:101B5000918003FA0BFA16EA0A08F1D04E6866453E
:101B600012DC122E56D8DFE806F0350B45495555E4
:101B700055555555555555555555554D510000BF61
:101B8000D1F80C9046E000BF4FF6FF72C1F221027F
:101B900096420FDC0022C1F2110296421AD00022B6
:101BA000C1F21202964215D00022C1F221029642E1
:101BB00010D02FE00022C1F2220296420AD0002269
:101BC000C1F23102964205D00022C1F232029642A1
:101BD00020D100BF8A684AB1012A14BFC0F814A0FE
:101BE000C0F810A04FF0080914E000BF4FF004093E
:101BF00010E000BFCA6802F108090BE04FF00009CD
:101C000008E000BFCA6802F1040903E0CA6802F1F3
:101C10000C0900BF22460646B8F5807F24BF203A53
:101C2000043637680F25954027EA050509FA02F2C0
:101C30002A433260CA79D2067FF582AF41F2180397
:101C4000C4F202031A68AEF57E7642F001021A6011
:101C50001A6802F001020192019A2BF0030256F871
:101C600002A040F60002C4F2010290427FF426AFC7
:101C700000272BE702B0BDE8F08F000040F2E4102F
:101C8000C2F2000000687047002804BF01207047BE
:101C9000F0B581B0044690F83D0028B9002084F8E2
:101CA0003C00204600F0ECFB242084F83D00206836
:101CB000016821F001010160016841F40041016007
:101CC000016821F40041016000F090FD636848F272
:101CD000A16CC0F2010C40F60011C0F23D01634559
:101CE0003CBF48F28041C0F21E01884202D201206E
:101CF00001B0F0BD4DF68361C4F21B31A0FB0112AF
:101D00002168970CD1F804E04FF496762EF03F0549
:101D100045EA92454D60774348F638160D6AC0F2A1
:101D20004106A7FB067625F03F07634538BF960CB2
:101D3000721C3A430A62CA6948F2A0664CF6FF7701
:101D4000C0F20106B34222EA07020BD801385B0059
:101D5000B0FBF3F001306FF31F30042898BF04206C
:101D60001BE000BFA768013857B119277B43B0FBC0
:101D7000F3F001306FF31F3070B100F5804007E0E1
:101D800003EB4303B0FBF3F001306FF31F3018B1E6
:101D900000F5004001E000BF01201043C861086861
:101DA000D4E9072320F0C000104318430860886876
:101DB00048F2FF3204F10C0790438CCF18431043D4
:101DC000A6698860C86820F0FF0038433043C860C7
:101DD000086840F00100086000202021206484F899
:101DE0003D10206384F83E0001B0F0BD2DE9F043C2
:101DF00083B01E46174689460446FFF73FFF94F816
:101E00003D10202924D10546206800BF816989073B
:101E10001AD5FFF733FF411B20681A29F6D38169D1
:101E20008907F3D500202021206384F83D1084F831
:101E30003E00216C41F02001216484F83C00022026
:101E400003B0BDE8F08300BF94F83C10012903D132
:101E5000022003B0BDE8F083012184F83C10016842
:101E6000C90703D1016841F001010160016840F236
:101E7000020821F400610160212184F83D10102145
:101E800084F83E100021216467626685618DC0F28E
:101E900001082185A8F10211E162E16A0A9E11F5AB
:101EA000803F18BF01291DD1016841F48071016094
:101EB00020464FF0011100223346009501F00EF844
:101EC00050B120680068C00544BF4FF40070206422
:101ED000012003B0BDE8F0832069B0F5804F07D141
:101EE000FE2015E00829DFD0216B1229DCD0DFE7C6
:101EF000062000EAD9102168F030086108F10601D7
:101F0000204632462B4601F0CFF80028E0D1FF20D2
:101F1000216800EA090008612046414632462B4606
:101F200001F0C2F80028D3D1002002902068416956
:101F3000029180690290029806E000BF2046314677
:101F40002A4600F06DFF18BB208D68B3204631464D
:101F50002A4601F05DF9D8B9606A2168024612F894
:101F6000013B0B616262628D013A6285228D531ED4
:101F700023854F697F07E1D51B04DFD0437802300A
:101F80000B616062608D01386085901E2085D5E709
:101F9000206C04289CD12068016841F40071016024
:101FA000012003B0BDE8F0832068016841F40071AE
:101FB0000160202084F83D00002084F83E0084F871
:101FC0003C0003B0BDE8F0832DE9F04F85B0044636
:101FD0000020994616460F460490FFF74FFE94F8EE
:101FE0003D10202927D10546206800BF8169890757
:101FF0001CD5FFF743FE411B20681A29F6D38169DF
:102000008907F3D500202021206384F83D1084F84F
:102010003E00206C04F13C0A40F0200020640220C5
:1020200000218AF8001005B0BDE8F08FA2461AF82A
:102030003C1F012904D1022005B0BDE8F08F00BF8C
:1020400001228AF800200368DDE90F180E9ADB07E9
:1020500003D1036843F001030360036823F40063C2
:102060000360222084F83D00402084F83E000020D8
:10207000206462626185608D394620850020CFF63C
:10208000FF70E062204632464B46CDE9008500F005
:10209000D9FD18B1012005B0BDE8F08F208D0228D0
:1020A00010D0012824D0002838D1002003902068C7
:1020B00041690391816903910399016841F40071B9
:1020C000016037E02068016841F400610160EFF3CE
:1020D000108072B6002003902068416903918169E5
:1020E00003910399016821F48061016062B621E0E7
:1020F0002068016821F480610160EFF3108072B6FE
:10210000002003902068416903918169039103993C
:10211000016841F40071016062B60BE0206801685B
:1021200041F480610160002103914169039180695C
:1021300003900398208D002800F0D480042740F2FB
:1021400014094BF2895BC0F20107C2F20009C1F227
:10215000F84B232617E000BF204641462A4601F0EF
:102160000FF8002896D12068616A00690870606ADB
:10217000218D01306062481E2085618D01396185A5
:10218000010400F0AF8080B2032867D8022800F075
:1021900089800128E0D02046394600224346009538
:1021A00000F09CFE00287FF475AF2068016821F4E0
:1021B00080610160EFF3108072B62068616A006987
:1021C0000870606A218D0130013960622185618D5E
:1021D00001396185D9F80010C908A1FB0B12110A59
:1021E000714304910499013904910499002900F084
:1021F000858021684A6952071ED4049901390491E7
:102200000499002900F07A8021684A69520713D4A2
:10221000049901390491049900296FD021684A6911
:10222000520709D40499013904910499002965D011
:1022300021684A695207D5D50A6842F400720A60DB
:1022400009690170606A218D01306062481E208535
:10225000608D0138608562B685E700BF2046414643
:102260002A4600F08DFF00287FF414AF2068616AD1
:1022700000690870606A2268411C208D6162013823
:102280002085638D013B638553695B077FF578AFDC
:1022900080B2032803D1106820F4806010601069B8
:1022A00064E700BF2046394600224346009500F00F
:1022B00015FE00287FF4EEAEEFF3108072B62068B2
:1022C000616A026842F40072026000690870606A24
:1022D000218D01306062481E2085608D0138608547
:1022E00062B640E7202084F83D00002084F83E00DC
:1022F00000218AF8001005B0BDE8F08F00202021F1
:10230000206384F83D1084F83E00206C40F02000EB
:10231000206462B6012000218AF8001005B0BDE8F3
:10232000F08F00002DE9F04383B0994616460F4622
:102330000446FFF7A3FC94F83D10202924D105465C
:10234000206800BF816989071AD5FFF797FC411BF8
:1023500020681A29F6D381698907F3D50020202146
:10236000206384F83D1084F83E00216C41F0200188
:10237000216484F83C00022003B0BDE8F08300BF74
:1023800094F83C10012903D1022003B0BDE8F0838A
:10239000012284F83C200368DDE90B180A9ADB0768
:1023A00003D1036843F001030360036823F400636F
:1023B0000360212084F83D00402084F83E00002086
:1023C000206462626185608D394620850020CFF6E9
:1023D000FF70E062204632464B46CDE9008500F0B2
:1023E000BBFC18B1012003B0BDE8F083208D98B983
:1023F000204641462A4600F013FD88B3206C04288D
:10240000F0D12068016841F400710160012003B03F
:10241000BDE8F0830004EBD0204641462A4600F098
:10242000F7FE0028EAD1616A2268084610F8013BED
:102430001361238D6062581E2085678D013F67857B
:1024400057697F07E6D50704E4D048781061881CF7
:102450006062981E2085618D01396185DAE700BFD1
:102460002068016841F400710160202084F83D007B
:10247000002084F83E0084F83C0003B0BDE8F083FF
:1024800010B586B045F200410268C4F20001002098
:102490008A42059002D006B010BD00BF41F2180478
:1024A000C4F20204226842F008022260226802F0AC
:1024B00008020192019AC02202921222CDE9032061
:1024C00001F5384002A9FFF7D9FA606840F400101E
:1024D0006060606800F400100190019806B010BDC3
:1024E00040F20C0040F2E411C2F20000C2F200011E
:1024F00000780A68104408607047000080B542F216
:102500000000C4F20200016841F0100101600320E4
:1025100000F07AF80F2000F005F800F027F800200E
:1025200080BD000070B540F20C06C2F2000640F219
:1025300014013278C2F200014FF47A730968B3FBD8
:10254000F2F20446B1FBF2F1084600F063FB0F2CF7
:102550004FF0010508D838B94FF0FF30214600226E
:10256000002500F025F87460284670BD82B041F265
:102570001800C4F202000168022241F0010101606A
:10258000016801F0010101910199416841F0805118
:102590004160406800F08050009000980420C4F230
:1025A0000100016862F31A61016002B07047000027
:1025B00010B54EF60C5CCEF2000CDCF80030C3F324
:1025C000022E8EF00704042C28BF0424BEF103035E
:1025D0004FF0FF3E0EFA04F438BF0023A1439940A8
:1025E0000EFA03F39A43114300F00F0200F1604327
:1025F0000901043A03F564436244002848BF02F12C
:102600000C03197010BD00004EF60C51CEF2000103
:102610000A684FF6FF031A4060F30A2242F0806016
:1026200040F0FD7008607047002804BF012070472B
:102630002DE9F04381B042F20008C4F202080446DA
:10264000D8F800000D4600F0070088420CD2D8F8F8
:10265000000020F007002843C8F80000D8F8000068
:1026600000F00700A8426CD1206841F204098107FC
:10267000C4F2020917D5410705D5D9F8001041F475
:10268000E061C9F80010010705D5D9F8001041F440
:102690006051C9F80010D9F80010A26821F0F001CB
:1026A0001143C9F80010C00742D1D8F8000000F06B
:1026B0000700A8420CD9D8F8000020F007002843F2
:1026C000C8F80000D8F8000000F00700A84238D190
:1026D0002068410707D5D9F80010E26821F4E061CD
:1026E0001143C9F80010000708D5D9F80000216986
:1026F00020F4605040EAC100C9F80000D9F8002079
:1027000002F00C00082841F20020C0F27A0051D1FA
:1027100044F2C673C2F38341C0F60003595CD2038E
:102720003CD440F60010C0F23D00484342E000BFF8
:10273000606802280AD001282AD159F8041C8903AC
:1027400008D4012001B0BDE8F08300BF59F8041C93
:102750008901F6D5D9F8001021F003010843C9F822
:102760000000FFF78BFA064641F28837D9F80000DF
:10277000616800F00C00B0EB810F96D0FFF77EFA95
:10278000801BB842F2D9032001B0BDE8F08300BF3E
:1027900059F8041C8907D4D5DCE700BFD9F800201C
:1027A00044F2C473C2F34042C0F600039A5C48434B
:1027B000B0FBF2F0D9F8001044F2AC72C1F303118F
:1027C000C0F60002515C40F2140220FA01F140F21E
:1027D0001000C2F200000068C2F200021160FFF7B0
:1027E000A1FE002001B0BDE8F083000040F214001B
:1027F00041F20401C2F20000C4F20201006809685B
:1028000044F2BC72C1F30221C0F60002515CC84020
:1028100070470000002804BF012070472DE9F041F7
:1028200082B00446007841F20006C007C4F20206F6
:102830000CD0706800F00C00042840F081803068F3
:10284000800303D56068002800F04E81207880075F
:102850001BD5706810F00C0F09D0706800F00C00E8
:10286000082840F08B807068C00300F187803068D2
:10287000800703D52069012840F0368130686169FE
:1028800020F0F80040EAC10030602078000713D43F
:10289000207840072CD4E569002D00F02081706875
:1028A00000F00C00082840F0AF80012D40F00C81B2
:1028B000012002B0BDE8F081A069002800F08C8002
:1028C0000020C4F242200121C0F88014FFF7D6F99D
:1028D000054600BF706A800700F1BA80FFF7CEF9A5
:1028E000401B0228F6D9032002B0BDE8F08100BFEA
:1028F000F0695FEAC00808D4F06940F08050F061E8
:10290000F06900F080500090009847F20007C4F290
:1029100000073868C0054DD4386840F480703860CE
:10292000FFF7ACF9054600BF3868C00542D4FFF791
:10293000A5F9401B6428F7D9032002B0BDE8F08157
:10294000706800F00C00082803D17068C0033FF5E0
:1029500076AF6068002800F00981B0F5A02F00F084
:102960001D81B0F5803F00F01D81306820F480307B
:102970003060306820F4802017E100BF2069002813
:1029800040F20000C4F2422000F08C80012101607E
:10299000FFF774F9054600BF306880073FF56EAF5A
:1029A000FFF76CF9401B0228F6D9032002B0BDE8FE
:1029B000F08100BFE068002800F09A80052800F050
:1029C000B180012800F0B280306A20F0010030624E
:1029D000306A20F00400ACE00020C4F24220002164
:1029E000C0F88014FFF74AF9054600BF706A8007F7
:1029F0007FF54EAFFFF742F9401B0228F6D90320BE
:102A000002B0BDE8F08100BF0027C4F242270020D9
:102A10003866FFF733F9022D05460DD13068800185
:102A200040F1D680FFF72AF9401B02284FF003003F
:102A3000F4D902B0BDE8F081306880014FD5FFF7CE
:102A40001DF9401B02284FF00300F5D9F1E700BF44
:102A500040F21400C2F20000006844F6D351C1F203
:102A60006201A0FB0101480A019000BF00BF01986C
:102A7000411E002801913FF40BAF00BF0198411E99
:102A8000002801913FF404AF00BF0198411E0028C7
:102A900001913FF4FDAE00BF0198411E0028019155
:102AA000E4D1F5E600210160FFF7E8F8054600BF34
:102AB000306880077FF5E9AEFFF7E0F8401B022899
:102AC0004FF00300F4D9B4E77068216A00F4803253
:102AD0008A4209D1616A00F47010884204D1002052
:102AE00002B0BDE8F08100BF012002B0BDE8F08176
:102AF000306A20F001003062306A20F00400306259
:102B0000FFF7BCF8054641F2883700BF306A8007FE
:102B100022D5FFF7B3F8401BB8424FF00300F5D9B8
:102B200087E700BF306A40F004003062306A40F04E
:102B300001003062FFF7A2F8054641F2883700BF76
:102B4000306A800708D4FFF799F8401BB842F7D9DC
:102B5000032002B0BDE8F081B8F1000F3FF59BAE55
:102B6000F06920F08050F06195E600BF306820F4F5
:102B700080303060306820F480203060FFF77EF8CD
:102B8000054600BF306880037FF560AEFFF776F83A
:102B9000401B64284FF00300F4D94AE7306840F442
:102BA00080203060306840F480303060FFF766F895
:102BB000054600BF306880033FF548AEFFF75EF87A
:102BC000401B6428F6D9032002B0BDE8F08100BFA5
:102BD000206AB0F5803F05D17168A26821F4003108
:102BE000114371607168626A21F4741111430843E2
:102BF000706001203866FFF741F8044630688001B4
:102C00003FF56DAFFFF73AF8001B02284FF00300C5
:102C1000F4D90EE7411E0020B0EB116F1CBF01205C
:102C200070474EF21002CEF2000251604EF6235170
:102C3000CEF20001F0230B70072190601160704705
:102C4000FEE700002DE9F04782B0044600689A468E
:102C50000B9D0A9E0368914643F4806202600268FD
:102C60000F4642F48071016020464FF001110022AE
:102C70003346009500F032F950B120680068C00575
:102C800044BF4FF400702064032002B0BDE8F08719
:102C900040F202082068C0F2010807F0FE07076151
:102CA0002046414632462B4600F0FEF920B1012075
:102CB00002B0BDE8F08700BF0020019020682A46DE
:102CC000416901918069314601900198204600F0E8
:102CD0009FFAB0B92068BAF1010F09D04FEA192163
:102CE0000161204631462A4600F092FA48B9206830
:102CF0005FFA89F10161204631462A4600F088FAE0
:102D000060B1206C0428D2D12068016841F40071C0
:102D10000160012002B0BDE8F08700BF20680022FA
:102D20000168334641F48071016020464FF0011183
:102D3000009500F0D3F800289FD147F0010C2768D8
:102D40002046414632462B46C7F810C002B0BDE8C7
:102D5000F04700F0A9B900002DE9F04383B0044624
:102D600000680D4601680A9F0B9E41F480719946E8
:102D70009046016020464FF0011100223B4600962C
:102D800000F0ACF850B120680068C00544BF4FF4B3
:102D900000702064032003B0BDE8F083206805F0D4
:102DA000FE0101610221C0F2010120463A4633468C
:102DB00000F07AF920B1012003B0BDE8F08300BF34
:102DC00000200290206832464169029180693946AC
:102DD00002900298204600F01BFA58B1206C04289B
:102DE000E9D12068016841F400710160012003B05D
:102DF000BDE8F0832068B9F1010F0AD04FEA18212D
:102E0000016120463946324600F002FA0028E5D139
:102E100020685FFA88F10161002003B0BDE8F0830B
:102E200070B50368044653F8140F400711D40E46DA
:102E3000481C29D086BB00BF1868400527D4FEF780
:102E40001DFF236853F8140F400737D51868400753
:102E5000F2D5002070BD00BF18684007F9D418688B
:102E6000400514D418684007F3D4186840050ED400
:102E700018684007EDD41868400508D41868400762
:102E80004FF0000048BF70BD18684005E4D56FF4EE
:102E900080601860042012E0154603E053F8140F18
:102EA0004007D6D418684005F1D4FEF7E7FE401B72
:102EB0002368B042F2D958694007EFD4202000219E
:102EC0002022216384F83D2084F83E10226C1043B8
:102ED0002064012084F83C1070BD00002DE9F04111
:102EE000054600681E46144601F47F0201338FB286
:102EF00042D0DDF81880B2F5803F40F0878040690D
:102F00003840C01BB0FA80F04009A04240F0C880B1
:102F10004EB924E040693840C01BB0FA80F0400947
:102F2000A04240F0BD80FEF7A9FEA0EB0801286892
:102F3000B142EFD941693940C91BB1FA81F1490960
:102F4000A142E7D19BE000BF40693840C01BB0FA06
:102F500080F04009A0424FF0000040F0A280FEF750
:102F60008DFE286841693940C91BB1FA81F14909D0
:102F7000A142E9D183E000BFB2F5803F24D100BF78
:102F800041693940C91BB1FA81F14909A14240F0B8
:102F9000878041693940C91BB1FA81F14909A142D1
:102FA00040F07E8041693940C91BB1FA81F149097D
:102FB000A14275D141693940C91BB1FA81F1490972
:102FC000A142DDD06CE000BF81693940C91BB1FA74
:102FD00081F14909A14263D181693940C91BB1FA24
:102FE00081F14909A1425BD181693940C91BB1FA1C
:102FF00081F14909A14253D181693940C91BB1FA14
:1030000081F14909A142DFD04AE000BF8069384020
:10301000C01BB0FA80F04009A04241D146B923E07C
:1030200080693840C01BB0FA80F04009A04237D117
:10303000FEF724FEA0EB08012868B142F0D98169AF
:103040003940C91BB1FA81F14909A142E8D116E022
:1030500080693840C01BB0FA80F04009A0424FF0B0
:10306000000018BFBDE8F081FEF708FE28688169FE
:103070003940C91BB1FA81F14909A142E8D10020C8
:103080002021286385F83D1085F83E00296C41F029
:103090002001296485F83C000120BDE8F08100BFD3
:1030A0000020BDE8F0810000F0B581B00446006862
:1030B0001D4643698FB203EA0701B94202D10020DD
:1030C00001B0F0BD4169164601323FD049053FD4F9
:1030D000CEB100BFFEF7D2FD411B2068B14203D93B
:1030E00041693940B94215D141693940B942E6D008
:1030F00041694905EED52BE041693940B942DED03E
:103100004169490524D4FEF7B9FD20684169394079
:10311000B942F1D0202023E041693940B942CED0F4
:103120004169490514D441693940B942C7D0416960
:1031300049050DD441693940B942C0D041694905BA
:1031400006D441693940B942B9D041694905E3D54E
:10315000016841F4007101606FF4806141610420F5
:1031600000212022216384F83D2084F83E10226C47
:103170001043206484F83C10012001B0F0BD000031
:1031800070B504460068154650F8143F5A063DD401
:103190000E4629B926E000BF50F8141F490635D461
:1031A0000168C90621D4FEF769FD411B2068B142C0
:1031B000F2D941694906EFD400202021206384F828
:1031C0003D1084F83E00206C40F0200018E000BF65
:1031D000FEF754FD206850F8141F4906ECD501682D
:1031E000490613D40168C906F2D56FF010010160D9
:1031F00000202021206384F83D1084F83E00206CDC
:103200002064002084F83C00012070BD002070BDC7
:1032100070B50368044653F8140F000611D40E4627
:10322000481C29D086BB00BF1868400527D4FEF78C
:1032300025FD236853F8140F000637D518680006DB
:10324000F2D5002070BD00BF18680006F9D41868D8
:10325000400514D418680006F3D4186840050ED44D
:1032600018680006EDD41868400508D418680006F0
:103270004FF0000048BF70BD18684005E4D56FF4FA
:1032800080601860042012E0154603E053F8140F24
:103290000006D6D418684005F1D4FEF7EFFC401BB9
:1032A0002368B042F2D958690006EFD420200021EB
:1032B0002022216384F83D2084F83E10226C1043C4
:1032C0002064012084F83C1070BD0000FEE700007F
:1032D000FEE700007047000070470000FFF700B9EC
:1032E00070470000FEE7000070B582B03220FEF7A4
:1032F000B1FB40F2901443F63C06C2F20004C0F663
:103300000C06642501AA20464E210423019600954F
:10331000FEF76CFD0520FEF79DFB01AA20464E211D
:10332000042301960095FEF761FD0120FEF792FB54
:1033300001AA20464E21042301960095FEF756FD72
:103340000A20FEF787FB42F62C00C0F60C00019025
:1033500001AA20464E2104230095FEF747FD0A20CE
:10336000FEF778FB42F62C00C8F68C00019001AA0B
:1033700020464E2104230095FEF738FD0120FEF77C
:1033800069FB40F60C00C8F68C00019001AA2046AB
:103390004E2104230095FEF729FD0120FEF75AFB7C
:1033A00040F60C00C1F61C00019001AA20464E21F7
:1033B00004230095FEF71AFD0120FEF74BFB0120C8
:1033C000FEF748FB40F60C00C6F66C00019001AA1F
:1033D00020464E2104230095FEF708FD0120FEF74C
:1033E00039FB40F60C00CCF6CC00019001AA204637
:1033F0004E2104230095FEF7F9FC02B070BD0000D9
:10340000012805D0002808BF41F0800102E000BF7C
:1034100041F0C00180B582B021F00F00090100F138
:103420000C0208308DF8050001F10C008DF8060043
:1034300001F108008DF8070040F290108DF804208B
:103440004FF0640CC2F2000001AA4E210423CDF813
:1034500000C0FEF7CBFC02B080BD0000017800295F
:1034600008BF7047F0B583B040F29014461E642741
:10347000C2F2000402AD00BF21F00F00090100F10B
:103480000D0209308DF8090001F10D008DF80A00D8
:1034900001F109008DF808208DF80B0020464E211F
:1034A0002A4604230097FEF7A1FCB17801360029D3
:1034B000E2D103B0BDE8F0407047000092B0FFF7E2
:1034C0001DF800250120CDE90D55CDE90B550890DB
:1034D0000C904FF4E0100DF120094FF480310226DA
:1034E00011904846CDE90915CDE90F61FFF792F932
:1034F00020B1EFF3108072B6FEE700BF0F20CDE9D8
:1035000003064FF48060CDE9060503A80221059566
:10351000FFF78AF820B1EFF3108072B6FEE700BF24
:1035200041F21800C4F20200016840F2741B41F03D
:10353000200101600168C2F2000B01F02001089136
:1035400008990168002441F00401016001684FF40A
:10355000804201F0040108910899016841F00801D6
:103560000160006845F2004100F0080008900898EA
:10357000C4F20001584640F81C1F48F2A061C0F296
:103580000101C0E90114C0E90342C0E90544C0E9F2
:103590000744FEF779FB28B1EFF3108072B600BF45
:1035A000FEE700BFFFF7A0FE45F20000C0F2125098
:1035B000089040F62610ADF8240024208DF826004F
:1035C00007200BF11C064FF47A78CDE900903046C5
:1035D000D02100220123CDF80880FEF7A3FE0BF1D5
:1035E0000B074FF0640A3FE0022001903046D021E3
:1035F00011220123CDF80090CDF80880FEF7E4FCFD
:103600009DF820009DF8215000F0E6FD8046A809B5
:103610004C46894600F0E0FD00230022C3F6D0733B
:1036200000F0EEFD42464B464FF47A78A14600F09A
:103630002BFD00F0F7FCCBF8000000200A21FFF77B
:10364000DFFE5D4655F80B0B00F0C6FF02460B4649
:10365000284664A1FCF71AFE2846FFF7FFFE4FF448
:10366000FA70FEF7F7F90024072001903046D021C8
:1036700000220123CDF80090CDF80880FEF7A4FCCD
:103680009DF820009DF82110050905EB850500F047
:103690000F009DF8222000EB45000D0905EB850584
:1036A00001F00F019DF8233001EB4501150905EBF1
:1036B000850502F00F0202EB45021D0905EB8505A9
:1036C00003F00F0303EB45039DF824508BF80730FC
:1036D0002B0903EB830305F00F0505EB43039DF86E
:1036E00025508BF808302B0903EB830305F00F05F9
:1036F00005EB43039DF826508BF809302B0903EBAB
:10370000830305F00F0505EB43038BF804008BF8EA
:1037100005108BF806208BF80A30D2B2CBB2C5B2B6
:10372000384627A10095FCF7B1FD00200021FFF7E6
:1037300067FE3846FFF792FE9BF808209BF8093099
:103740009BF80A50384622A10095FCF793FD012012
:103750000021FFF755FE3846FFF780FE012001905B
:103760003046D0210F2201238DF820408DF80C40E7
:10377000CDF80090CDF808A0FEF726FC9DF82000BB
:1037800040073FF531AF03A8009001243046D02117
:103790000E220123642501940295FEF715FC9DF885
:1037A0000C00D02140F02000CDE9000430460E226C
:1037B00001234FF0640A0295FEF7B4FD14E700BF41
:1037C000253032643A253032643A253032640000C4
:1037D000253032642D253032642D3230253032646C
:1037E00000000000256600005FEA400C08BF91F071
:1037F000000F4FEA8C234FEAC12243EA51514FEAAE
:103800001C5018BF00F5F0404FEA300018BF41F0DF
:1038100000415FEA6C5C00F02980BCF1FF3F08BF0B
:1038200040F080407047130C06BF12044FF0100C9C
:103830004FF0000C130E04BF12020CF1080C130F12
:1038400004BF12010CF1040C930F04BF92000CF1A1
:10385000020CD30F04BF52000CF1010C11464FF0C3
:103860000002A0F11F00A0EB0C00704711F0004F08
:1038700008BF704731F000413FF4D5AF0B0C06BFD5
:1038800009044FF0100C4FF0000C0B0E04BF09029E
:103890000CF1080C0B0F04BF09010CF1040C8B0F89
:1038A00004BF89000CF1020CCB0F04BF49000CF1DE
:1038B000010CCCF1200322FA03F341EA030102FADE
:1038C0000CF2A0EB0C0000F10100704723F07F47E1
:1038D00020F07F4C80EA030000F00040ACEB0703CF
:1038E00003F57C5303F1FF032DE9804909B44FEA46
:1038F000144324EA03484FEA154B25EA0B4E0FF216
:10390000042606EB13273E7803FB0667C7F500077E
:1039100007FB06F64FEAD64606F102064FEA543791
:1039200007FB066CCCF1005C4FEA1C472CEA074C05
:103930000CFB06F507FB06F404EB15464FEA96165A
:1039400049085FEA320234BF00204FF000404FEADE
:10395000D13706FB07FC4FEA1C4C0CFB0BF7D21BC4
:1039600003FB0CF761EB07010CFB0EF7B0EB074014
:1039700072EB17420CFB08F734BFA2EB0742B2EB25
:10398000074261EB17414FEA0C444FEA910706FBEF
:1039900007FC4FEA1C4C0CFB0BF7B0EBC74072EB7B
:1039A000573203FB0CF734BFA2EBC742B2EBC7425E
:1039B00061EB57310CFB0EF7B0EBC70072EB57729F
:1039C0000CFB08F734BFA2EBC702B2EBC70261EBF6
:1039D00057714FEA816141EA92114FEA826242EAED
:1039E00090124FEA806004EBCC04039F4FEAD1377A
:1039F00006FB07FC4FEA1C4C0CFB0BF7D21B03FB2E
:103A00000CF761EB07010CFB0EF7B0EB074072EB14
:103A100017420CFB08F734BFA2EB0742B2EB074298
:103A200061EB17414FEA8C5504EB9C244FEA910758
:103A300006FB07FC4FEA1C4C0CFB0BF7B0EBC74036
:103A400072EB573203FB0CF734BFA2EBC742B2EB69
:103A5000C74261EB57310CFB0EF7B0EBC70072EBBE
:103A600057720CFB08F734BFA2EBC702B2EBC702D8
:103A700061EB57714FEA816141EA92114FEA82622C
:103A800042EA90124FEA806015EB4C2544F10004A5
:103A90004FEAD13706FB07FC4FEA1C4C0CFB0BF737
:103AA000D21B03FB0CF761EB07010CFB0EF7B0EB2D
:103AB000074072EB17420CFB08F734BFA2EB07423A
:103AC000B2EB074261EB17414FEA813141EA924183
:103AD0004FEA823242EA90424FEA80304FEA0C7657
:103AE00015EB1C1544F1000448EA03434EEA0B4869
:103AF0004FF0000EB2EB080C71EB030724BF6246D7
:103B000039464EEB0E0E4FF0000B00185241494162
:103B10004BEB0B0BB2EB080C71EB03077BF1000BCB
:103B200024BF624639464EEB0E0E4FF0000B0018D4
:103B3000524149414BEB0B0BB2EB080C71EB030705
:103B40007BF1000B24BF624639464EEB0E0E51EA64
:103B5000020718BF46F0010616EB0E7655F100027B
:103B600054F1000103D5BDE88901BDE80088BDE836
:103B70008901BDE80048B619524141EB0101A3F1AA
:103B80000103704780807F7E7D7C7B7A79787776B1
:103B900076757473727171706F6E6E6D6C6C6B6A2A
:103BA0006A696868676666656464636362616160C8
:103BB000605F5F5E5E5D5D5C5C5B5B5A5A59595845
:103BC00058575756565555555454535352525251AF
:103BD000515050504F4F4F4E4E4D4D4D4C4C4C4B05
:103BE0004B4B4A4A4A49494948484847474747464C
:103BF0004646454545444444444343434342424288
:103C0000424141419C46002B30D477002BD04FEAF3
:103C100037071CB503B44FF010004FF01001BAF194
:103C2000000F06D0BCF1000FDCBF40F0080040F0F0
:103C300008014FF000000FBCBDE810400BF1010B74
:103C4000BBF1010F08BF5FEA170722BF12F10102A3
:103C500011F101014FF0004143F1000300F0004079
:103C600043EA00007047F9D35708D0E746EA064612
:103C70004FEA164613F1400F1FDD13F1200FDFBF8F
:103C800016430A46002120335B42BED0C3F1200711
:103C900046EA06464FEA164602FA07F746EA0706DC
:103CA00022FA03F2C3F1200701FA07F742EA0702FA
:103CB00021FA03F14FF00003A7E746EA020646EABD
:103CC00006464FEA164646EA0106BCBF46EA0646E5
:103CD000360C4FF000034FF000024FF0000194E764
:103CE0002DE9804C70B49A46934691E8380007C895
:103CF00031EA400C48BF34EA430C03D5FFF7E6FD38
:103D0000FFF780FFF0BCBDE8008C2DE9804C70B45B
:103D10009A46934691E8380007C810F0804F08BFD4
:103D200013F0804F03D100F005F8FFF76BFFF0BCF4
:103D3000BDE8008C20F07F4723F07F4C80EA030031
:103D400000F0004007EB0C03A3F57C53A3F1FE0346
:103D500092F0000F00F0B38095F0000F00F0778034
:103D60002DE901494FEA114021EA00484FEA144683
:103D700024EA064700FB06FC08FB06F607FB08F8EA
:103D800018EB06484CEB164C00FB07F718EB0748FE
:103D90004CEB17404FEA124B22EA0B4E4FEA154606
:103DA00025EA06470BFB06FC0EFB06F607FB0EFE9C
:103DB0001EEB064E4CEB164C0BFB07F71EEB074EAB
:103DC0004CEB174B18EB0B0840F1000018EB0E0BF7
:103DD00058EB000840F100008F1A4FF000014FF03F
:103DE00000063CBFC943661B14BFB5EB040C0021A1
:103DF0003CBFC943F61B4FEA174427EA04454FEA84
:103E00001C472CEA074C04FB076205FB07F70CFB79
:103E100005F616EB074642EB174204FB0CFC16EBCB
:103E20000C4642EB1C421BEB060658EB02024141DA
:103E30004EEA8E0E46EA9E0601D5BDE80189B61906
:103E4000524141EB0101A3F10103BDE801894FEAB1
:103E5000144524EA05464FEA114721EA074C05FBC1
:103E600007F406FB07F70CFB06F111EB074144EBE7
:103E7000174405FB0CFC11EB0C4144EB1C444FEACE
:103E8000124722EA074C05FB07F206FB07F70CFB7B
:103E900006F616EB074642EB174205FB0CFC16EB49
:103EA0000C4642EB1C456A1854F1000148BF7047AC
:103EB000B619524141EB0101A3F10103704795F09E
:103EC000000F37D04FEA114221EA02464FEA144769
:103ED00024EA074C02FB07F106FB07F70CFB06F48C
:103EE00014EB074441EB174102FB0CFC14EB0C44B0
:103EF00041EB1C414FEA154725EA074C02FB07F549
:103F000006FB07F70CFB06F616EB074645EB1745D5
:103F100002FB0CFC16EB0C4645EB1C42121951F14E
:103F2000000148BF7047B619524141EB0101A3F1AE
:103F3000010370474FEA144524EA05464FEA11474A
:103F400021EA074C05FB07F106FB07F70CFB06F21D
:103F500012EB074241EB174105FB0CFC12EB0C4244
:103F600051EB1C414FF0000648BF7047921841EBDF
:103F70000101A3F101037047490050EAC12018BFB5
:103F800004204A0D18BF40F0010040F2FF72B2EB6E
:103F9000515F08BF40F00200012808BF05207047AC
:103FA00030380A2801D201207047002070478A6803
:103FB000002A02DC0022FDF797B8521E8A604A6888
:103FC000C0B2531C4B6010707047000010B5002940
:103FD0000AD00878002807D005487844FDF76EFA23
:103FE000002801D0002010BD0248784410BD000018
:103FF0001E0800001608000010B500290AD0087835
:10400000002807D005487844FDF758FA002801D069
:10401000002010BD0248784410BD00000E080000CA
:104020000608000021F0004201F00043A2F16052B6
:10403000B2F5801F28BFD2F17F6C0BD95FEA001C5C
:1040400043EAC20242EB507018BF704728BF20F00D
:1040500001007047B2F5801FBCBF184670474FEA99
:10406000410C1CF5001F02D2084600F026BB70B5BB
:1040700000F070F900000089FFF7F6BF4FF0004034
:10408000A0F580007047000010B591EA030F48BF0B
:1040900083F0004300F1BA81841A71EB030C05D25E
:1040A000121943EB0C03001B61EB0C014FEA115496
:1040B000A4EB135CDFF81CE11EEA430F18BF9EEA75
:1040C000445F00F0748021EA045123EA0E0343F4B4
:1040D0008013DCF1200E32D322FA0CFE10EB0E001E
:1040E00023FA0CFE41EB0E01CCF1200E03FA0EFE7A
:1040F00010EB0E00CCF1200E51F10001B1F5801F44
:1041000032D201EB045112FA0EF2BDE8104058BF52
:104110007047401C38BF5FEA420218BF7047002852
:1041200014BF20F0010041F100014FEA410313F5F3
:10413000001F38BF7047A1F1C04100F059B9012AF2
:1041400043EB0302ACF1200CDCF11F0E32BF4FF049
:10415000000E23FA0CF310EB030041EB0451B4EB17
:10416000115FD0D0A1EB045101F58011490801EB9A
:1041700004515FEA30000ED350F1000038BF12FA4C
:104180000EFE08D1BDE81040C9E7401C38BF5FEA09
:104190004202CAD1C3E7BDE810404FEA410313F51C
:1041A000001F38BF7047A1F1C04100F021B99EEA5D
:1041B000445F08D011EA5E0FBDE8104004BF01F073
:1041C000004100207047BDE8104070B500F0C2F813
:1041D00064FBBE3E0000E0FFB0FA80F310FA03F18A
:1041E0000AD0C3F11D0303F580634FEA03524FEA7F
:1041F000415002EBD12170474FF0000070470000A2
:1042000070B5DFF848C11CEA111E1EBF1CEA131569
:104210009EEA0C0F95EA0C0F00F06F8081EA030410
:104220004EEAD47EAE4421EA4C1123EA4C1341F409
:10423000801143F48013AEF17F7EA1FB024CA0FB02
:104240000365361955EB0C05A1FB034C4CF100033B
:10425000A0FB021C16EB0C06654153F1000309425A
:1042600018BF46F0010613F4007F0BD14FEA03316B
:104270004FEA053041EA155140EA165034036FF019
:1042800003020AE04FEAC3214FEAC52041EA555133
:1042900040EA5650F4026FF0020202EB2E4201EBAC
:1042A000025585EACE710AD05FEA440C18BF24F0AB
:1042B000004450F1000041F1000120EAD47040F2C6
:1042C000FE7C624500D270BDA84214BF4FF080440E
:1042D0004FF04044002E08BF0024BEF1806FA8BFFD
:1042E000A1F1C041BDE8704080F2828001F1C0417F
:1042F00001F000414FF0000070470CEA13159EEAF0
:104300000C0F18BF95EA0C0F06D081EA030E4FF090
:1043100000000EF0004170BD00F01CF88900013E65
:1043200000F007B800F009B84FEA430C5FEA5C5CA4
:1043300008D081EA030100F05BB84FEA410C5FEA64
:104340005C5CF6D102494FF0000070470000FF07A7
:104350000000F87F0EF1020E2EF0030E5EF8046BE3
:10436000364205D4012A43EB030515F5001F12D888
:10437000012841EB010C1CF5001F0CD80ED14FEAAF
:10438000D17C0CEB4C0C0CF1020C15F5001F08BF96
:104390004CEBD37C04E04FF0080C01E04FEAD37CF7
:1043A0000CEB4C0526FA05F606F00706B6F1040CF0
:1043B00006D20EEB860CBDE870404CF0010C604755
:1043C000DFE80CF0090B02024FF00041A1F50021DB
:1043D0004FF0000070BD19461046012851EB010452
:1043E00018BFD4F5001484BF002001F0004170BD57
:1043F0000808A0F500114FEA3101704710B591EAA5
:10440000030F48BF83F000433FF546AE841A71EBBB
:10441000030C07D28CF0004C121943EB0C03001B69
:1044200061EB0C014FEA1154A4EB135CDFF8A4E13B
:104430001EEA430F18BF9EEA445F00F0B48021EAF1
:10444000045123EA6E035242C3EB6E0338BF5B1E76
:10445000DCF1200E25D322FA0CFE10EB0E0043FAFD
:104460000CFE41EB0E01CCF1200E03FA0EFE10EB18
:104470000E00CCF1200E51F1000129D401EB0451C2
:1044800012FA0EF2BDE8104058BF7047401C1CBF26
:10449000B2F1004F704700280CBF491C20F001000A
:1044A000704712EB020E43EB030218BF4FF0010EF0
:1044B0004EEA4202ACF1200CDCF11E0E56D943FA52
:1044C0000CFE10EB0E00CCF11E0E51F1FF31D5D5D4
:1044D0000EF1010E12FA0EFE404141EB010101EB1B
:1044E000445C5FEA5C5C10D901EB045110EBDE70B8
:1044F00038BFBEF1004FBDE8104018BF704700281C
:104500000CBF491C20F00100704734D24FEAD42C74
:1045100024F4006411F500111BD0B1FA81F20B3ABA
:10452000A41AA41ED2F12003914030FA03F31943D8
:10453000904001EBCC7101EB0451002CBDE8104020
:10454000A8BF704701F1C04101F000414FF00000E9
:104550007047B0FA80F310FA03F102D1BDE81040C1
:104560007047E41A173C4805C90AE2E701EB045119
:10457000BDE81040704749104FEA300001EB04518C
:10458000BDE8104002E04FF0000170474A0008BF4C
:104590000042F8D0B2F5001F28BF704701F000417B
:1045A0004FF0000070479EEA445F07D011EA5E0FAB
:1045B000BDE8104004BF002100207047BDE8104056
:1045C00070B5FFF7C7FE00BF40DFF63E104683F030
:1045D000004170470000E0FF43004FEAD30C4FEA70
:1045E0003C0C43401FBF40070CF1605113F0FE4FDD
:1045F00070471CF0006F03D10CF0004100207047A1
:104600000CF0004343EA507040EACC0010B500F0D3
:104610000EF800BF000000924FEA0001FFF7E8BE6D
:104620004FF00041A1F500214FF0000070470EF15E
:10463000020E2EF0030E5EF8044B244204D44FEA1F
:104640004102B2F17F4F11D84FEA4003B3F17F4FDF
:104650000CD80ED14FEAD07C0CEB4C0C0CF1020CB8
:10466000B2F17F4F08BF4CEBD17C04E04FF0080C57
:1046700001E04FEAD17C0CEB4C0324FA03F404F084
:104680000704B4F1040C06D20EEB840CBDE8104014
:104690004CF0010C6047DFE80CF0070802024FF015
:1046A0000040A0F5800010BD0846420018BFD2F1BE
:1046B000807288BF00F0004010BDFF2141EAD05059
:1046C000C0057047FCF766B900000000000000005C
:1046D0003031323334353637383941424344454638
:1046E0004030580030313233343536373839616232
:1046F0006364656640307800040000080000000034
:104700000000000200010000100000000240000054
:10471000000000A00000000005400000000000C8EC
:10472000000000000C4000000000409C0000000061
:10473000194000000020BCBE000000003440000012
:10474000BFC91B8E00000004B5400000504BCFD005
:104750006607E2CF010000006C4100003E8251AAD2
:10476000DFEEA73401000000D9420000DCB5A0E272
:104770003A301F97FFFFFFFFB4450000FD25A0C89A
:10478000E9A3C14FFFFFFFFFFF3F000000000080D3
:1047900000000000FF3F000000000080000000005B
:1047A0003A7474003A7474003A74740000000000A3
:1047B00000000000010203040607080900000000D1
:1047C00001020304010202030405060708090A0B9B
:1047D0000C0D0E0F101000002849000800000020EA
:1047E000180000005001000840490008180000208F
:1047F000D0070000700100081C000000430000000A
:10480000F8FFFFFF0C0000000E0000000F0000008A
:104810002E0000001001000043000000F8FFFFFF21
:1048200000404040404040404040414141414140C3
:104830004040404040404040404040404040404078
:104840004005020202020202020202020202020207
:10485000022020202020202020202002020202020C
:104860000202909090909090101010101010101064
:104870001010101010101010101010100202020270
:1048800002028888888888880808080808080808B4
:1048900008080808080808080808080802020202B0
:1048A00040000000000000000000000000000000C8
:1048B00000000000000000000000000000000000F8
:1048C00000000000000000000000000000000000E8
:1048D00000000000000000000000000000000000D8
:1048E00000000000000000000000000000000000C8
:1048F00000000000000000000000000000000000B8
:1049000000000000000000000000000000000000A7
:104910000000000000000000000000000000000097
:104920000000000000000000000000000000000087
:1049300000000000010000001000000000127A00DA
:04000005080000ED02
:00000001FF
