:020000040800F2
:10000000E8060020B1020008052B0008C522000800
:10001000012B0008050E0008D52B00080000000089
:100020000000000000000000000000000D2B000890
:10003000090E000800000000092B0008112B000821
:10004000CB020008CB020008CB020008CB0200085C
:10005000CB020008CB020008CB020008CB0200084C
:10006000CB020008CB020008CB020008CB0200083C
:10007000CB020008CB020008CB020008CB0200082C
:10008000CB020008CB020008CB020008CB0200081C
:10009000CB020008CB020008CB020008CB0200080C
:1000A000CB020008CB020008CB020008CB020008FC
:1000B000CB020008CB020008CB020008CB020008EC
:1000C000CB020008CB020008CB020008CB020008DC
:1000D000CB020008CB020008CB020008CB020008CC
:1000E000CB020008CB020008CB020008CB020008BC
:1000F000CB020008CB020008CB020008CB020008AC
:10010000CB020008CB020008CB020008CB0200089B
:10011000CB020008CB020008CB020008CB0200088B
:10012000CB020008CB020008CB020008CB0200087B
:10013000CB0200080000000000000000CB02000815
:10014000CB020008CB020008CB020008CB0200085B
:10015000CB020008CB020008CB020008CB0200084B
:10016000CB020008CB020008CB020008CB0200083B
:10017000CB020008CB020008CB0200080000000000
:1001800000000000CB02000800000000000000009A
:10019000CB0200080000000000000000CB020008B5
:1001A000000000000000000000000000CB0200087A
:1001B000CB020008CB020008CB020008CB020008EB
:1001C000CB02000800F002F800F062F814A696E8EE
:1001D000000CB244B344DA4501D100F059F8BAE852
:1001E0000F000FA696E83000A5EB040504EB060708
:1001F000AAEB0704A7F101074FEA15154FEA3414DB
:10020000A4F10104AC4201D300F042F813F0010F55
:1002100018BFFB1A43F0010300F001F8DBE71847B1
:10022000483E0000683E0000103A24BF78C878C1FC
:10023000FAD8520724BF30C830C144BF04680C60EC
:1002400070470000704700000023002400250026AE
:10025000103A28BF78C1FBD8520728BF30C148BF29
:100260000B607047662903F09E86642900F0F480D5
:10027000002070471FB503F084FE00F04DFC040021
:100280000020002103F01CFBE0601FBD10B510BD75
:1002900000F042FD1146FFF7EDFF02F085FD00F092
:1002A00060FD03B4FFF7F2FF03BC00F0A3FD000004
:1002B0000948804709480047FEE7FEE7FEE7FEE7FA
:1002C000FEE7FEE7FEE7FEE7FEE7FEE70448054936
:1002D000054A064B70470000C12B0008C501000805
:1002E000E8000020E8060020E8020020E8020020E4
:1002F00053EA020C00F069802DE9F04B4FF0000644
:10030000002B1FBFB3FA83F503FA05F424FA05F6B0
:100310005E4012BF1643B2FA82F502FA05F4C5F147
:1003200020051EBF22FA05FC44EA0C04203556EADB
:10033000044C4FEA144418BF641C4FF000084FF0FF
:100340000009904271EB030C39D3002919BFB1FAAF
:1003500081F701FA07F6B0FA80F700FA07F6C7F15D
:1003600020071EBF20FA07FC46EA0C062037B6FB22
:10037000F4FCA7EB0507103F07F01F0BCBF120069D
:100380002CFA06F60CFA0BFB44BFB3460026202FCE
:10039000A4BF5E464FF0000B5BEA060C08BF4FF0AF
:1003A000010B19EB0B0948EB0608ABFB027C06FBC3
:1003B00002CC0BFB03CCC01B71EB0C01C1E70B465D
:1003C000024641464846BDE8F08B13B5084318BFC6
:1003D0004FF0FF300146AFF30080BDE81C4070478E
:1003E0000FB41CB5074B06AA7B44694600900598DC
:1003F00000F079FB0020694600F088FB1CBC5DF82A
:1004000014FB00002107000070B5044685690068F0
:10041000C10601D5302600E02026C00707D070BDF8
:10042000D4E9012130469047206A401C20626D1EAD
:10043000F6D570BD70B5044685690078C00707D150
:1004400070BDD4E9012120209047206A401C206221
:100450006D1EF6D570BD00002DE9F0410646002462
:1004600010687529314616A510D0AFF3008000281A
:1004700002DA404213A507E031688A0701D512A5C8
:1004800002E0490704D511A5012401E0AFF3008083
:1004900000210A2206F1240709E0B0FBF2FCB0FBC0
:1004A000F2F302FB1C00303078541846491C002837
:1004B000F3D123462A463046BDE8F04100F0A7B804
:1004C000000000002D0000002B00000020000000B4
:1004D0002DE9F05F894604464FF0000ADFF824B1A9
:1004E000FB44C0F820A02046E168884700287DD062
:1004F000252806D0D4E901219047206A401C2062BB
:10050000F1E700255F462046E16888472028064637
:1005100007DB312E05D2B81910F8200C08B10543BD
:10052000F1E7A80701D525F00405C4F81CA00027B1
:10053000C4F818A02A2E09D0304603F0B9F938B310
:1005400004EB8708303EC8F8186019E059F8041B1E
:10055000204604EB87029161E1688847012F064637
:1005600018D1E069002820DA25F020051DE0D8F830
:10057000180000EB800006EB40003038C8F8180087
:100580002046E1688847064603F092F90028EED13C
:10059000012F0AD02E2E08D12046E16888477F1C03
:1005A0000646022F45F02005C4DBA069002803DAC7
:1005B000404245F00105A061E80701D025F0100593
:1005C000A6B1A6F14100192802D8203645F40065ED
:1005D0004A463146204625604D46FFF743FE60B14E
:1005E000012807D0ED1D25F0070000E007E000F12D
:1005F000080978E705F1040975E730467AE7206ACB
:10060000BDE8F09FC63A00007047704770472DE97B
:10061000F0470D4699469246044600F124080168C9
:10062000880604D5E06921F01001216000E0012076
:10063000A84201DD471B00E00027A1697A1902EBFF
:100640000900081AA0612078C00602D42046FFF7EE
:10065000DBFE002608E0D4E901211AF806009047E5
:10066000206A401C761C20624E45F4DB2078C006D0
:100670000AD52046FFF7C8FE06E0D4E90121302064
:100680009047206A401C2062381EA7F10107F4DC65
:1006900007E0D4E9012118F805009047206A401CC2
:1006A0002062281EA5F10105F3DC2046FFF7C2FEFB
:1006B0002078000602D50220BDE8F0870120FBE784
:1006C0002DE9FF4F0C461E464FF0FF378BB0D2E9A5
:1006D0000001DDF860800A908A46C1F30A5505B929
:1006E0003D46002108464FF00000BAF1000F00F42B
:1006F000400005DA00EB80004FF4400101EA5000B1
:100700004FEA9059B9F1010F00DDB9460A9850EA55
:100710004A000ED044F61050A5F2FF3545432F1481
:10072000B8F1000F1ED07542291E1EDDC9F100026E
:100730001CE0B8F1010F4FF0000001D0302103E0C0
:10074000F24305E02154401CB042FBDB304600225E
:10075000002121540B99C1F80880C1E900200FB095
:10076000BDE8F08FBD1B6D1CDEE74A4600DA69422A
:1007700006A800F05BFA06AB93E8070003AB83E83A
:10078000070050460A9902F0B3FC8DE80700A0F577
:1007900000501F3800900398002D0ADD42F21F011F
:1007A0004A460844002303A90390684602F01CFF50
:1007B00009E0A0F500504A461F38002303A9039022
:1007C000684602F026FF8DE807000004000C03D005
:1007D0004FF0FF30410800E01046B8F1000F03D0A1
:1007E0000022009215461EE0751E05D400F098F90F
:1007F000303262556D1EF9D5B3460122084302D04E
:1008000000227F1C04E02078302801D100227F1EC6
:10081000002A099784D01DE0112D07DA00F080F935
:10082000303262556D1C50EA0102F5D1084302D006
:100830000098C8B10EE00021681E05E0235C625CF0
:1008400063542254401E491C8142F7DBAB46A81B6F
:10085000401E0990002004F80B000B98099AC0F87C
:100860000880C0E9002B7AE711264FF0000857E70F
:100870002DE9F04F88460446D21D22F0070191B0C1
:10088000D1E90001CDE90A0102F0FAFF02460B9816
:10089000C00F01D02D2007E02068810701D52B2053
:1008A00002E0202101EAC000032A099001D0072AB2
:1008B00005DB03464146204600F078F90BE120783D
:1008C000800601D5E06900E00620B8F1650F814699
:1008D00006D0B8F1660F18D0B8F1670F70D131E0CB
:1008E0000020B9F1110F009001DB112301E009F1A3
:1008F00001030AAA01A90CA8FFF7E2FEDDE90C70CA
:10090000002609F10105834647E001204B4600908F
:100910004FF000470AAA01A90CA8FFF7D1FEDDE9B4
:100920000DB00C995D46002610B909F101000D18B3
:10093000B9EB050003D4C0F1FF3609F10105A5EBC1
:1009400009002BE0B9F1010F01DA4FF00109002095
:10095000B9F1110F0090484601DD112300E0034674
:100960000AAA01A90CA8FFF7ABFEDDE90C704D4601
:1009700000268346207800070AD4AB4500DA5D469E
:1009800001A8012D04DD411911F8011C302907D0FF
:100990004F4502DA17F1040F04DA012082460FE016
:1009A0006D1EEEE7002F02DCED1B3E4403E0781CD9
:1009B000A84200DD7D1CB81B00F1010A4FF0004782
:1009C0002078000703D4AA4501DB4FF0FF3A00214D
:1009D000B7F1004F0DF143088DF8431024D00220E9
:1009E0002B23002F01DA7F422D230A21021EA0F1C2
:1009F000010000DC5FB197FBF1FC97FBF1F201FB1A
:100A00001C7C17460CF1300C08F801CDEEE7A8F17C
:100A1000010003702188090501D5452100E0652109
:100A2000A0F1010800F8011C09980FA9A1EB080723
:100A3000FF1D00B10120411901EBEA70A1693844A2
:100A4000081A401EA0612078C00602D42046FFF795
:100A5000DBFC099828B1D4E901219047206A401CA9
:100A600020622078C00622D52046FFF7CDFC1EE08C
:100A7000002E04DBB34502DD01A8805D00E03020DC
:100A8000D4E901219047206A401C2062761CAAF11B
:100A900001005FEA000A0AD100F03EF8C068016870
:100AA000405CD4E901219047206A401C2062281E46
:100AB000A5F10105DCDC07E0D4E9012118F8010B00
:100AC0009047206A401C2062381EA7F10107F3DC22
:100AD0002046FFF7AFFC032011B041E601694A1C34
:100AE00002610878704700B58FB0CDE9013100216F
:100AF000059105497944CDE9031011466846FFF791
:100B0000E7FC0FB000BD0000E5FFFFFF0A6802F838
:100B1000010B0A6070470000004870473000002059
:100B200030B5B0F10A0271F100034FEA900E4EEABF
:100B3000817EB0EB0E0061EB91014FEA101E4EEA90
:100B4000017E10EB0E0041EB11114FEA102E4EEA20
:100B5000016E10EB0E0041EB11214FEA104E4EEAF0
:100B6000014E10EB0E0041EB1141401841F1000124
:100B70004FEAD00040EA41704FEAD1014FEA8104C8
:100B800044EA907410EB800544EB01046D1944EBCA
:100B90000404521BA3414FF0000348BF0A3200D5A2
:100BA00030BD401C41F1000130BD00002DE9F04195
:100BB0001F46044603260168072A01F4006004DB8F
:100BC00008B116A505E016A503E008B115A500E0DB
:100BD00015A521F010002060A069C01EA0610FB112
:100BE000401EA0612046FFF70FFC4FB1D4E9012160
:100BF00038469047206A401C2062C01C206206E0F4
:100C0000206AFAE7D4E9012115F8010B9047761E16
:100C1000F8D22046FFF70EFCBDE8F0814E414E00B1
:100C20006E616E00494E4600696E66002DE9F04720
:100C3000814616468AB0354878440DC88DE80D00C7
:100C400032487844801C03AC0DC884E80D0041F69E
:100C50009B300844372190FBF1F290FBF1F5A5F1B0
:100C6000800501FB12041B3C02D56442012000E018
:100C70000020DFF898A080460027FA44AAF1BE0AB7
:100C80000EE0E0070AD03246684607EB4701012331
:100C90000AEB810102F0BDFC8DE8070064107F1CA7
:100CA000002CEED1194F7F44AE3F19E0E80715D074
:100CB00007EB04100DF1180A90E80E008AE80E0008
:100CC000C068F04201D1981908903246012306A964
:100CD00003A802F09EFC03AB83E807006D10641CC0
:100CE000002DE3D14FF0010332466946B8F1000F01
:100CF00003A802D002F078FC01E002F08AFCC9E906
:100D00000001C9F808200AB0BDE8F087FC330000F4
:100D100000487047100000207546FFF7F9FFAE4607
:100D200005006946534620F00700854618B020B5F7
:100D3000FFF7CCFABDE820404FF000064FF0000767
:100D40004FF000084FF0000BAC46ACE8C009ACE82F
:100D5000C009ACE8C009ACE8C00921F007018D4624
:100D6000704710B50446AFF300802046BDE8104040
:100D7000FFF797BA0000000030B44FF0013C50F884
:100D8000042B51F8043BCCFA52F4D51A20D1FCB90B
:100D900050F8042B51F8043BCCFA52F4D51A17D171
:100DA000B4B950F8042B51F8043BCCFA52F4D51ADC
:100DB0000ED16CB950F8042B51F8043BCCFA52F424
:100DC000D51A05D1002CDAD030BC4FF000007047A6
:100DD00029BAB1FA81F111F01801D1F12000844053
:100DE000F2D1CA40CB4012F0FF0213F0FF0330BC37
:100DF000D01A704701491820ABBEFEE7260002005A
:100E000070470000FEE7000070470000B0B50446E0
:100E100000F0E6F8054640F20000C2F2000000785B
:100E2000611C18BF044400BF00F0DAF8401BA04268
:100E3000FAD3B0BD2DE9F04F82B000F13E4707F183
:100E4000FF77860546EA972741F60006C4F20206B8
:100E5000072243F6004EB04208BF0622C4F2010E3C
:100E6000062F38BF3A46002600274FF000080092B0
:100E700009E000BF08F101080237B8F1100F06F1D0
:100E8000040600F0A3800D68012202FA08F415EAB6
:100E90000409EFD0D1F804B003220BF0030CACF13D
:100EA0000105BA40012D6FEA020A0FD88268CD68A9
:100EB00002EA0A02BD402A4382604268A243CBF3A1
:100EC000001404FA08F42243426005E0BCF1030F69
:100ED00002D14FF0030C1EE0C2688C6802EA0A02DD
:100EE000BC402243BCF1020FC26014D16FF0030278
:100EF00002EA58020244D2F820C006F01C040F2374
:100F00000D69A3402CEA0303A5402B431362D1F8DB
:100F100004B00BF0030C02680CFA07F302EA0A02B1
:100F20001A431BF4403F0260A4D0002243F644035E
:100F30000192C4F202031A684FF6084C42F4804250
:100F40001A601A68CFF6FF7C02F480420192019A7F
:100F500028F00302724452F80C3006F00C050F24FE
:100F6000AC40A343009C04FA05F52B4342F80C3037
:100F7000DEF808204B6842EA090543F60C4CDC0217
:100F800058BF22EA0905CEF80850C4F2010CDCF87B
:100F900000209C0242EA090558BF22EA0905CCF864
:100FA0000050DEF804209C0342EA090558BF22EAFB
:100FB0000905CEF80450DEF80020DB0342EA0905FB
:100FC00058BF22EA0905CEF8005053E702B0BDE849
:100FD000F08F0000002A08BF0904816170470000FB
:100FE00040F2E000C2F2000000687047002804BF31
:100FF00001207047F0B581B0044690F83D0028B953
:10100000002084F83C00204600F060FD242084F895
:101010003D002068016821F001010160016841F490
:1010200000410160016821F40041016000F0DEFE32
:10103000636848F2A16CC0F2010C40F60011C0F2E6
:101040003D0163453CBF48F28041C0F21E01884229
:1010500002D2012001B0F0BD4DF68361C4F21B3114
:10106000A0FB01122168970CD1F804E04FF49676AA
:101070002EF03F0545EA92454D60774348F6381615
:101080000D6AC0F24106A7FB067625F03F076345CF
:1010900038BF960C721C3A430A62CA6948F2A066CD
:1010A0004CF6FF77C0F20106B34222EA07020BD8E2
:1010B00001385B00B0FBF3F001306FF31F30042800
:1010C00098BF04201BE000BFA768013857B119275B
:1010D0007B43B0FBF3F001306FF31F3070B100F5CC
:1010E000804007E003EB4303B0FBF3F001306FF304
:1010F0001F3018B100F5004001E000BF012010438F
:10110000C8610868D4E9072320F0C00010431843E1
:101110000860886848F2FF3204F10C0790438CCFD6
:1011200018431043A6698860C86820F0FF00384360
:101130003043C860086840F00100086000202021AA
:10114000206484F83D10206384F83E0001B0F0BDB7
:101150002DE9F04381B01F46164688460446FFF746
:101160003FFF94F83D10202920D105462068816971
:10117000890717D5FFF734FF401B1928F6D900203F
:101180002021206384F83D1084F83E00216C022663
:1011900041F02001216484F83C00304601B0BDE8F4
:1011A000F08300BF94F83C10012905D10226304697
:1011B00001B0BDE8F08300BF012184F83C10016854
:1011C000C90703D1016841F001010160016821F400
:1011D00000610160212184F83D10102184F83E1047
:1011E0000021216466626785618D21850021CFF62B
:1011F000FF71E162E16A11F5803F18BF012919D141
:10120000016841F4807101604169DDF82090C907EF
:1012100023D119F1010116D0B9F1000F48D000BF58
:10122000FFF7DEFE401B484544D820684169C907E6
:10123000F6D012E00829E3D0216B1229E0D0E3E7D1
:101240004169C90709D14169C90706D14169C9077F
:1012500004BF41695FEAC171F2D02169B1F5804FE5
:1012600002D1FE215DE000BF062101EAD811F03174
:1012700001614169090753D4416919F101024FEA3B
:10128000415131D0002900F18380B9F1000F00F005
:101290003981FFF7A5FE401B484500F235812068E3
:1012A000416909073CD441694905F2D570E000BFA6
:1012B000FFF796FE00202021206384F83D1084F87B
:1012C0003E00216C012641F020012164216884F850
:1012D0003C000868C00544BF4FF4007020643046ED
:1012E00001B0BDE8F08300BF002951D4416909076E
:1012F00016D4416949054BD44169090710D44169A5
:10130000490545D4416909070AD4416949053FD4D3
:101310004169090704D441694905E7D538E000BFB0
:10132000FF2101EA08010161416989073AD4416955
:1013300019F101022AD049052AD4B9F1000F00F0B1
:10134000E180FFF74DFE401B484500F2DD8020683C
:101350004169890726D441694905F2D518E000BFE3
:10136000416989071ED44169490511D4416989073A
:1013700018D4416949050BD44169890712D44169E0
:10138000490505D4416989070CD441694905E7D568
:10139000016841F4007101606FF4806141610420D3
:1013A000B3E000BF00260096416900918169009179
:1013B0000099218D002900F0958009F1010801466E
:1013C00051F8142F120635D4B8F1000F16D0B9F128
:1013D000000F00F0AB8000BF0868400500F1AE8050
:1013E000FFF7FEFD401B484500F2A580206801463E
:1013F00051F8142F1206EFD51CE000BF0A68520501
:1014000000F19C800A68120614D40A68520500F1A3
:1014100095800A6812060DD40A68520500F18E8084
:101420000A68120606D40A68520500F187800A6825
:101430001206E3D5636A194611F8012B0261616255
:10144000618D01396185278D0146A7F1010CA4F852
:1014500028C051F8142F52070DD55FEA0C420AD06C
:101460005A78A7F1020C02619A1C6262628D013AFD
:101470006285A4F828C00A6852072FD4B8F1000F7B
:1014800014D0B9F1000F51D00868400556D4FFF7C9
:10149000A7FD401B48454ED82068014651F8142F3F
:1014A0005207F1D5B4F828C018E000BF0A68520509
:1014B00044D40A68520711D40A6852053ED40A6817
:1014C00052070BD40A68520538D40A68520705D46B
:1014D0000A68520532D40A685207E7D55FEA0C4120
:1014E0007FF46DAF016841F400710160202084F841
:1014F0003D0084F83E6084F83C60304601B0BDE8B1
:10150000F08300BFFFF76CFD202000212022216323
:1015100084F83D2084F83E10226C0126104320649C
:1015200084F83C10304601B0BDE8F08308684005FF
:1015300004D4FFF755FD202004E000BF6FF4806065
:101540000860042000212022216384F83D2084F8D3
:101550003E10226C1043206484F83C10206C042858
:101560000AD120680126016841F40071016030460B
:1015700001B0BDE8F08300BF0126304601B0BDE8F0
:10158000F08300002DE9F04784B0984617460E46D8
:101590000446FFF725FD94F83D10202923D1054688
:1015A00020688169890719D5FFF71AFD401B1928A2
:1015B000F6D900202021206384F83D1084F83E00F5
:1015C000206C04F13C0940F020002064022000213E
:1015D00089F8001004B0BDE8F08700BFA14619F8F3
:1015E0003C1F012904D1022004B0BDE8F08700BFF0
:1015F000012289F800200368DDE90D1A0C9ADB0747
:1016000003D1036843F001030360036823F400631C
:101610000360222084F83D00402084F83E00002032
:10162000206462626185608D314620850020CFF69E
:10163000FF70E06220463A464346CDE900A500F03F
:1016400043FE18B1012004B0BDE8F087208DA8B199
:1016500002282BD0012835D121680A6822F4806243
:101660000A60002203924A6903928A690392039AEC
:101670000A6842F400720A602CE000BF0020039068
:10168000206841690391816903910399016841F4DC
:1016900000710160202084F83D00002084F83E00A5
:1016A000002189F8001004B0BDE8F08721680A68BD
:1016B00022F480620A600A6842F400620A60002232
:1016C000039202E00021039121684A69039289692B
:1016D000039103990AF1010680B2032818D8022861
:1016E00042D0012856D1BAF1000F00F0AB8020683B
:1016F000014651F8142F520600F1A8800868C00670
:1017000000F1E280FFF76CFC401B5045EFD9D0E0C0
:10171000BAF1000F10D000BF2068014651F8142F15
:1017200052060ED40868C00600F1CE80FFF758FCC0
:10173000401B5045F0D9BCE020684169490640F1A2
:10174000B1800069616A0870606A2268411C208D5E
:10175000616201382085638D013B638553695B07B6
:1017600040F18080106973E020684169490747D4DF
:10177000002E59D0BAF1000F00F09980FFF730FC2D
:10178000401B504500F29580206841694907F5D516
:1017900036E000BF2068416949070FD4002E65D0AC
:1017A000BAF1000F00F08380FFF71AFC401B504590
:1017B00000F27F80206841694907F5D5016821F46E
:1017C000806101600069616A0870606A218D013082
:1017D0000139606221852068618D01396185416927
:1017E00049070DD4002E4FD0BAF1000F5FD0FFF79C
:1017F000F7FB401B50455CD8206841694907F6D586
:10180000016841F4007101600069616A0870606AF2
:101810002268411C6162218D01392185618D013968
:1018200061851169417014E041694907E8D4416953
:1018300049075CBF41695FEA4171E1D441694907E9
:10184000F2D5DDE72068416949062BD50069616A58
:101850000870606A218D01306062481E2085618DAC
:101860000139618501047FF437AF13E74169490706
:10187000A4D4416949075CBF41695FEA41719DD4C5
:1018800041694907F2D599E741694907B8D44169E7
:1018900049075CBF41695FEA4171B1D441694907B9
:1018A000F2D5ADE750F8141FC90601460CD4FFF776
:1018B00097FB00202021206384F83D1084F83E002F
:1018C000206C40F020000AE06FF01000086000205B
:1018D0002021206384F83D1084F83E00206C2064B1
:1018E0000120002189F8001004B0BDE8F087000055
:1018F0002DE9F04383B0994616460F460446FFF79C
:101900006FFB94F83D1020291ED10546206881699F
:10191000890715D5FFF764FB401B1928F6D900206D
:101920002021206384F83D1084F83E00216C41F0B2
:101930002001216484F83C00022003B0BDE8F0835C
:1019400094F83C10012903D1022003B0BDE8F083D4
:10195000012284F83C200368DDE90B180A9ADB07B2
:1019600003D1036843F001030360036823F40063B9
:101970000360212084F83D00402084F83E000020D0
:10198000206462626185608D394620850020CFF633
:10199000FF70E062204632464B46CDE9008500F0FC
:1019A00021FE18B1012003B0BDE8F083208D00288E
:1019B00050D0206808F10106014651F8142F120694
:1019C0002CD49EB1B8F1000F5AD000BF0868400572
:1019D0005ED4FFF705FB401B404556D82068014602
:1019E00051F8142F1206F1D518E000BF0A6852050D
:1019F0004ED40A68120611D40A68520548D40A68FF
:101A000012060BD40A68520542D40A68120605D49D
:101A10000A6852053CD40A681206E7D5626A114684
:101A200011F8013B0361238D6162591E2185678D89
:101A3000013F678547697F070AD50F0408D05178B1
:101A40000161911C6162991E2185628D013A628556
:101A50000904B1D1204641462A4600F0FDFE38BBBC
:101A60002068016841F400710160202084F83D0085
:101A7000002084F83E0084F83C0003B0BDE8F08309
:101A80000868400504D4FFF7ABFA202004E000BF4B
:101A90006FF480600860042000212022216384F814
:101AA0003D2084F83E10226C1043206484F83C10E2
:101AB000206C04287FF476AF2068016841F400713F
:101AC0000160012003B0BDE8F0830000016845F229
:101AD0000040C4F20000814218BF7047B0B586B024
:101AE000002443F630050194C4F20205296800F58C
:101AF000D83041F002012960296801F0020101910A
:101B00000199C02101911221CDE902140321049110
:101B10000421059101A9FFF78DF90094286940F48B
:101B200000102861286900F400100090009806B0A9
:101B3000BDE8B0407047000040F2000040F2E00114
:101B4000C2F20000C2F2000100780A681044086086
:101B50007047000080B543F60040C4F202000168FF
:101B600041F400710160016841F480610160016825
:101B700041F480710160032000F076F8002000F04D
:101B800005F800F027F8002080BD000070B540F295
:101B90000006C2F2000640F208013278C2F20001EB
:101BA0004FF47A730968B3FBF2F20446B1FBF2F129
:101BB000084600F071FB0F2C4FF0010508D838B92A
:101BC0004FF0FF3021460022002500F021F874601C
:101BD000284670BD82B0002043F640010190C4F257
:101BE00002014A6842F480424A604A6802F4804234
:101BF0000192019A0090086840F0805008600868DF
:101C000000F0805000900098072002B000F02CB83F
:101C100010B54EF60C5CCEF2000CDCF80030C3F3CD
:101C2000022E8EF00704042C28BF0424BEF1030307
:101C30004FF0FF3E0EFA04F438BF0023A143994051
:101C40000EFA03F39A43114300F00F0200F16043D0
:101C50000901043A03F564436244002848BF02F1D5
:101C60000C03197010BD00004EF60C51CEF20001AD
:101C70000A684FF6FF031A4060F30A2242F08060C0
:101C800040F0FD7008607047002804BF01207047D5
:101C90002DE9F04143F60808C4F202080446D8F8DA
:101CA000F8030D4600F00F00884207D288F8F85379
:101CB000D8F8F80300F00F00A84277D12068810718
:101CC00017D5410705D5D8F8001041F4E051C8F800
:101CD0000010010705D5D8F8001041F46041C8F89C
:101CE0000010D8F80010A26821F0F0011143C8F8E4
:101CF0000010C00740D1D8F8F80300F00F00A84248
:101D000007D988F8F853D8F8F80300F00F00A84274
:101D10004CD12068410707D5D8F80010E26821F4BB
:101D2000E0511143C8F80010000708D5D8F80000AA
:101D3000216920F4604040EAC100C8F8000000F0CA
:101D400069F8D8F8001044F25002C1F30311C0F64C
:101D50000002515C40F2080220FA01F140F2040056
:101D6000C2F200000068C2F200021160FFF70EFF2D
:101D70000020BDE8F08100BF6068811E022907D203
:101D800058F8081C89015CBF0120BDE8F08111E012
:101D9000012807D158F8081C89035CBF0120BDE861
:101DA000F08107E058F8081C890703D40120BDE83A
:101DB000F08100BFD8F8001021F003010843C8F8F3
:101DC0000000FFF70DF9064641F28837D8F8000009
:101DD000616800F00C00B0EB810F8CD0FFF700F9C8
:101DE000801BB842F2D90320BDE8F08140F2080020
:101DF00043F60801C2F20000C4F20201006809685B
:101E000044F26002C1F38221C0F60002515CC84076
:101E10007047000010B543F60404C4F20204606881
:101E2000C0F3810142F20040C0F2F400DFE801F0AB
:101E30004202081841F20020C0F27A0010BD00BF33
:101E4000216801F03F02216823684902C3F3881129
:101E500016D4A1FB00010023FEF74AFA17E000BFE9
:101E6000216801F03F02216823684902C3F3881109
:101E700014D4A1FB00010023FEF73AFA15E000BFDD
:101E800041F20020C0F27A004843B0FBF2F0216832
:101E90000222C1F3014102EB410109E041F20020BD
:101EA000C0F27A004843B0FBF2F02168C1F302713E
:101EB000B0FBF1F010BD0000002804BF0120704706
:101EC0002DE9F04182B00446007843F60006C007D1
:101ED000C4F202060CD0B06800F00C00042840F0F8
:101EE00089803068800303D56068002800F0508145
:101EF0002078800723D5B06810F00C0F11D0B0689F
:101F000000F00C00082802D17068400209D5B068C2
:101F100000F00C000C2840F09F807068400200F137
:101F20009B803068800703D5E068012840F030814D
:101F30003068216920F0F80040EAC1003060207864
:101F4000000713D4207840072AD4A569002D00F09B
:101F50001A81B06800F00C00082840F0AB80012D19
:101F600040F0E880012002B0BDE8F08160690028FF
:101F700040F20000C4F2472000F088800121C0F840
:101F8000801EFFF72DF80546706F8007DAD4FFF743
:101F900027F8401B0228F7D9032002B0BDE8F081E2
:101FA000306C5FEAC0080AD400200190306C40F029
:101FB00080503064306C00F080500190019847F2FE
:101FC0000007C4F200073868C00537D4386840F409
:101FD00080703860FFF704F8054600BF3868C00518
:101FE0002CD4FEF7FDFF401B0228F7D9032002B0D6
:101FF000BDE8F081B06800F00C00082803D17068DB
:1020000040023FF56EAFB06800F00C000C2803D121
:10201000706840023FF565AF6068B0F5803F07D05B
:10202000B0F5A02F40F0CC80306840F480203060C4
:10203000306840F480303060CCE000BFA0680128F8
:1020400005D0052858D1306F40F004003067306F5C
:1020500040F0010030675AE0E068002800F09C8002
:102060000020C4F2472001210160FEF7B9FF0546B8
:10207000306880073FF55CAFFEF7B2FF401B0228D7
:102080004FF00300F4D902B0BDE8F0810021C0F8A0
:10209000801EFEF7A5FF0546706F80077FF552AFE3
:1020A000FEF79EFF401B0228F6D9032002B0BDE8D0
:1020B000F08100BF0027C4F2472700203866FEF7F2
:1020C0008FFF022D05460BD13068800140F19480CE
:1020D000FEF786FF401B02284FF00300F4D9D2E739
:1020E000306880014FD5FEF77BFF401B02284FF080
:1020F0000300F5D9C7E700BF316F002821F00101C7
:102100003167316F21F00401316700F09980FEF7EB
:1021100067FF054641F28837306F800700F1A280E3
:10212000FEF75EFF401BB842F6D9032002B0BDE8BF
:10213000F08100BF7068E16900F480028A4227D113
:10214000216A00F03F028A4222D147F6C071626ADA
:102150000140B1EB821F1BD1A16A4FF6FF73C90387
:10216000994300F44032A1F580318A4210D1E16AEE
:1021700000F07062B2EB016F0AD1216B00F0E04019
:10218000B0EB017F04D1002002B0BDE8F08100BFB8
:10219000012002B0BDE8F0810020C4F247200021F8
:1021A0000160FEF71DFF0546306880077FF5C7AE6A
:1021B000FEF716FF401B02284FF00300F4D962E738
:1021C0003168002821F480313160316821F48021A8
:1021D000316051D0FEF704FF054600BF3068800330
:1021E0003FF586AEFEF7FCFE401B6428F6D90320BF
:1021F00002B0BDE8F08100BF04F11C052FCD246BB7
:10220000084340EA8210D9034FF6FF729143A1F5CB
:10221000803140EA0560084340EA047070600120A4
:102220003866FEF7DDFE044630688001ABD4FEF769
:10223000D7FE001B02284FF00300F5D923E700BFAB
:10224000FEF7CEFE054641F2883700BF306F8007AB
:1022500008D5FEF7C5FE401BB8424FF00300F5D984
:1022600011E700BFB8F1000F3FF56FAE306C20F002
:102270008050306469E600BFFEF7B2FE054600BF3D
:10228000306880037FF534AEFEF7AAFE401B642859
:102290004FF00300F4D9F6E6411E0020B0EB116FB9
:1022A0001CBF012070474EF21002CEF200025160B6
:1022B0004EF62351CEF20001F0230B7007219060FF
:1022C00011607047FEE700002DE9F04383B004463B
:1022D00000680B9D0A9E0768994647F4806707606F
:1022E0000768904647F48073036043690F46DA0736
:1022F0001DD1711C11D0002E00F03681FEF770FE4A
:10230000401BB04200F2328120684169C907F5D014
:102310000DE000BF4169C90709D14169C90706D16C
:102320004169C90704BF41695FEAC171F2D007F092
:10233000FE0707614169890738D44169721C29D0B9
:10234000490529D4002E00F0398100BFFEF748FE70
:10235000401BB04200F2348120684169890725D4CE
:1023600041694905F2D517E0416989071ED44169E1
:10237000490511D44169890718D4416949050BD42D
:102380004169890712D44169490505D44169890722
:102390000CD441694905E7D5016841F40071016039
:1023A0006FF48061416104200BE100BF00210291C4
:1023B000014651F8142F02924A680292029A0A6862
:1023C000120620D4002E00F0AB80721C51D10A6896
:1023D000520500F1AD800A68120614D40A6852054D
:1023E00000F1A6800A6812060DD40A68520500F1B1
:1023F0009F800A68120606D40A68520500F1988088
:102400000A681206E3D5B9F1010F45D04FEA182149
:102410000161014651F8142F12063DD4002E00F040
:102420007F80721C2AD10A68520500F181800A68F7
:10243000120631D40A6852057AD40A6812062BD4DF
:102440000A68520574D40A68120625D40A6852052F
:102450006ED40A681206E6D51EE000BFFEF7C0FD86
:10246000401BB04261D82068014651F8142F120673
:10247000C9D408684005F1D55AE000BF0868400596
:1024800056D4FEF7ADFD401BB0424ED82068014641
:1024900051F8142F1206F1D55FFA88F10161014657
:1024A00051F8142F12061AD4D6B3721C33D10A680D
:1024B00052053DD40A68120611D40A68520537D471
:1024C0000A6812060BD40A68520531D40A6812064B
:1024D00005D40A6852052BD40A681206E7D50168AC
:1024E000002241F48071016020464FF00111334613
:1024F000009500F005FA002850D02068006844E0FC
:10250000FEF76EFD401BB0420FD82068014651F81F
:10251000142F1206E3D408684005F1D508E000BF87
:102520000868400504D4FEF75BFD202004E000BFEE
:102530006FF480600860042000212022216384F869
:102540003D2084F83E10226C1043206484F83C1037
:10255000206C042841D12068016841F400710160B9
:10256000012003B0BDE8F083FEF73AFD00202021F2
:10257000206384F83D1084F83E00216C41F0200176
:102580002164216884F83C000868C00544BF4FF40A
:1025900000702064032003B0BDE8F08347F0010C15
:1025A00027680221C0F20101204632462B46C7F8B7
:1025B00010C003B0BDE8F04300F046BAFEF710FDCE
:1025C000202000212022216384F83D2084F83E1041
:1025D000226C1043206484F83C10012003B0BDE855
:1025E000F08300002DE9F04381B004460068904676
:1025F0000268099D42F4807202604269089E994611
:10260000D2070F461DD1711C11D0002E00F0D280D0
:10261000FEF7E6FC401BB04200F2CE802068416924
:10262000C907F5D00DE000BF4169C90709D141696B
:10263000C90706D14169C90704BF41695FEAC17191
:10264000F2D007F0FE0101614169890738D4416980
:10265000721C29D0490529D4002E00F0E98000BF62
:10266000FEF7BEFC401BB04200F2E48020684169E6
:10267000890725D441694905F2D517E041698907E1
:102680001ED44169490511D44169890718D44169AB
:1026900049050BD44169890712D44169490505D41C
:1026A000416989070CD441694905E7D5016841F4BE
:1026B000007101606FF4806141610420BBE000BFE4
:1026C00000210091014651F8142F00924A680092AF
:1026D000009A0A6812061ED4002E00F08580721C33
:1026E0004DD10A68520500F187800A68120612D49B
:1026F0000A68520500F180800A6812060BD40A6845
:10270000520579D40A68120605D40A68520573D4B2
:102710000A681206E5D5B9F1010F43D04FEA182136
:102720000161014651F8142F12063BD4002E5BD0F4
:10273000721C29D10A6852055ED40A68120631D487
:102740000A68520558D40A6812062BD40A68520542
:1027500052D40A68120625D40A6852054CD40A6875
:102760001206E7D51EE000BFFEF73AFC401BB04260
:102770003FD82068014651F8142F1206CBD40868C0
:102780004005F1D538E000BF0868400534D4FEF7B5
:1027900027FC401BB0422CD82068014651F8142F6A
:1027A0001206F1D55FFA88F10161002001B0BDE8A1
:1027B000F08300BFFEF714FC00202021206384F882
:1027C0003D1084F83E00216C41F020012164216815
:1027D00084F83C000868C00544BF4FF400702064D2
:1027E000032001B0BDE8F0830868400504D4FEF77B
:1027F000F7FB202004E000BF6FF480600860042035
:1028000000212022216384F83D2084F83E10226CB0
:102810001043206484F83C10206C042817D12068F1
:10282000016841F400710160012001B0BDE8F0834E
:10283000FEF7D6FB202000212022216384F83D20D2
:1028400084F83E10226C1043206484F83C10012070
:1028500001B0BDE8F083000070B50368044653F88A
:10286000140F400737D40E46F1B1701C24D100BFBD
:102870001868400532D4186840072CD41868400501
:102880002CD41868400726D41868400526D4186848
:10289000400720D41868400520D4186840074FF03E
:1028A000000048BF70BDE3E71868400516D4FEF786
:1028B00097FB202016E000BF154600BF18684005B2
:1028C0000CD4FEF78DFB401BB042F2D8236853F8BE
:1028D000140F4007F2D5002070BD00BF6FF4806078
:1028E0001860042000212022216384F83D2084F810
:1028F0003E10226C10432064012084F83C1070BD0F
:102900002DE9F04105461446DDF8188001F47F00FA
:102910002A681E46B0F5803F8FB23FD150693840DB
:10292000C01BB0FA80F04009A04277D1701C2BD0B8
:10293000002E77D0FEF754FBA0EB0800B04273D80E
:10294000286840693840C01BB0FA80F04009A042B6
:10295000F0D063E050693840C01BB0FA80F0400905
:10296000A0425BD150693840C01BB0FA80F04009EA
:10297000A04253D150693840C01BB0FA80F04009E2
:10298000A0424FF000005DD150693840C01BB0FA42
:1029900080F04009A042DDD040E000BF906938409F
:1029A000C01BB0FA80F04009A04237D1701C1DD086
:1029B000C6B300BFFEF714FBA0EB0800B04233D84B
:1029C000286880693840C01BB0FA80F04009A042F6
:1029D000F0D023E090693840C01BB0FA80F0400985
:1029E000A0424FF0000018BFBDE8F0819069384068
:1029F000C01BB0FA80F04009A0420FD19069384066
:102A0000C01BB0FA80F04009A04207D1906938405D
:102A1000C01BB0FA80F04009A042DBD00020BDE826
:102A2000F08100BFFEF7DCFA00202021286385F842
:102A30003D1085F83E00296C41F02001296485F89D
:102A40003C000120BDE8F081F0B581B0044600688B
:102A50001D4643698FB203EA0701B94202D1002043
:102A600001B0F0BD4169164601321AD049050ED4B5
:102A7000A6B300BFFEF7B4FA401BB04230D82068BE
:102A800041693940B942EAD041694905F2D5016846
:102A900041F4007101606FF480614161042020E025
:102AA00041694905F3D441693940B942D7D04169F8
:102AB0004905ECD441693940B942D0D04169490552
:102AC000E5D441693940B942C9D041694905DED4EC
:102AD00041693940B942E3D1C1E700BFFEF780FA4E
:102AE000202000212022216384F83D2084F83E101C
:102AF000226C1043206484F83C10012001B0F0BD2A
:102B0000FEE70000FEE7000070470000704700008D
:102B1000FFF712B8B0B594B0002443F64000CDE9F9
:102B20000B44CDE909440694CDE90444CDE90244BF
:102B30000194C4F202000168012241F08051016059
:102B40000068022500F080500190019847F20000D3
:102B50000194C4F20000016862F38F3101600068E3
:102B600000F44040019001984FF4803008904FF4F9
:102B700080000E9004200F904820CDE9100507A892
:102B800007920D95CDE91255FFF796F920B1EFF3B5
:102B9000108072B6FEE700BF0F20CDE902054FF4AA
:102BA0008050CDE9050402A802210494FFF76CF8D7
:102BB00020B1EFF3108072B6FEE700BF14B0B0BDD5
:102BC0004EF68850CEF20000016841F470010160B9
:102BD00070470000FEE7000070B582B03220FEF7BB
:102BE00015F940F28C0443F63C06C2F20004C0F62C
:102BF0000C06642501AA20464E2104230196009567
:102C0000FEF7A6FA0520FEF701F901AA20464E219B
:102C1000042301960095FEF79BFA0120FEF7F6F8D3
:102C200001AA20464E21042301960095FEF790FA52
:102C30000A20FEF7EBF842F62C00C0F60C000190DB
:102C400001AA20464E2104230095FEF781FA0A20AE
:102C5000FEF7DCF842F62C00C8F68C00019001AAC1
:102C600020464E2104230095FEF772FA0120FEF75C
:102C7000CDF840F60C00C8F68C00019001AA204661
:102C80004E2104230095FEF763FA0120FEF7BEF8FB
:102C900040F60C00C1F61C00019001AA20464E210E
:102CA00004230095FEF754FA0120FEF7AFF840F632
:102CB0000C00C6F66C00019001AA20464E210423A8
:102CC0000095FEF745FA0120FEF7A0F840F60C004B
:102CD000CCF6CC00019001AA20464E210423009599
:102CE000FEF736FA02B070BD012805D0002808BFF3
:102CF00041F0800102E000BF41F0C00180B582B028
:102D000021F00F00090100F10C0208308DF80500D8
:102D100001F10C008DF8060001F108008DF80700A4
:102D200040F28C008DF804204FF0640CC2F20000D9
:102D300001AA4E210423CDF800C0FEF709FA02B023
:102D400080BD00000178002908BF7047F0B583B04E
:102D500040F28C04461E6427C2F2000402AD00BF9C
:102D600021F00F00090100F10D0209308DF8090072
:102D700001F10D008DF80A0001F109008DF808201D
:102D80008DF80B0020464E212A4604230097FEF7BB
:102D9000DFF9B17801360029E2D103B0BDE8F04097
:102DA00070470000000000008AB0FEF7D3FEFFF776
:102DB000B1FE002443F63000CDE908440494C4F287
:102DC00002000168002541F0040101600168C4F2BD
:102DD000020501F0040104910499049401680022A1
:102DE00041F0800101600168202601F0800104911A
:102DF00004990494016841F001010160016801F047
:102E00000101049104990494016841F002010160F8
:102E10000068202100F00200049004982846FEF784
:102E2000D9F84FF4005005904FF404100DF1140B35
:102E3000CDE9060405F500605946FDF7FBFF0C20BF
:102E4000059003204FF002090890072728465946AD
:102E5000CDE906940997FDF7EDFF0120CDE90604C1
:102E60002846594605960894FDF7E4FF40F2700A9B
:102E7000C2F2000AA5F5D631504640F81C1F48F2B0
:102E8000A061C0F201014FF48042C0E90114C0E921
:102E90000342C0E90544C0E90744FEF7A7F828B19A
:102EA000EFF3108072B600BFFEE700BFFFF794FE9D
:102EB00045F25500C0F21250059040F62610ADF8CC
:102EC000180024200AF11C058DF81A004FF4FA7638
:102ED0002846D02100220123CDE900B70296FEF753
:102EE00007FD9FED778B0AF10B064FF064083CE07D
:102EF0002846D021112201234FF47A77CDE900B979
:102F00000297FEF73FFB9DF814009DF8159000F026
:102F1000C7FD07464FEA99100C464FF0020900F032
:102F2000BFFD53EC182B00F0CFFD3A46234600F0CE
:102F30000FFD00F0DBFCCAF8000000200A21FFF7BB
:102F4000D3FE544654F80B0B00F0AAFF02460B4682
:102F5000204666A1FDF744FA2046FFF7F3FE4FF442
:102F60007A70FDF753FF00240727CDE900B7284604
:102F7000D021002201234FF4FA770297FEF702FBDB
:102F80009DF814009DF81510070907EB870700F05E
:102F90000F009DF8162000EB47000F0907EB87078D
:102FA00001F00F019DF8173001EB4701170907EBFE
:102FB000870702F00F0202EB47021F0907EB8707A2
:102FC00003F00F0303EB47039DF818708AF80730EE
:102FD0003B0903EB830307F00F0707EB43039DF85F
:102FE00019708AF808303B0903EB830307F00F07D9
:102FF00007EB43039DF81A708AF809303B0903EB8D
:10300000830307F00F0707EB43038AF804008AF8ED
:1030100005108AF806208AF80A30D2B2CBB2C7B2BD
:10302000304629A10097FDF7DBF900200021FFF7CA
:103030005BFE3046FFF786FE9AF808209AF80930C2
:103040009AF80A70304624A10097FDF7C9F90120CB
:103050000021FFF749FE3046FFF774FE8DF814405B
:103060008DF8104001242846D0210F220123CDF8ED
:1030700000B00194CDF80880FEF784FA9DF81400A2
:1030800040073FF535AF04A8CDE900042846D0211C
:103090000E220123CDF80880FEF774FA9DF8100087
:1030A000D02140F02000CDE9000428460E22012363
:1030B000CDF80880FEF71CFC1AE700BF00BF00BF78
:1030C000000000000000D03F253032643A25303245
:1030D000643A253032640000253032642D253032C8
:1030E000642D323025303264000000002566000077
:1030F0005FEA400C08BF91F0000F4FEA8C234FEAC3
:10310000C12243EA51514FEA1C5018BF00F5F0406C
:103110004FEA300018BF41F000415FEA6C5C00F0FC
:103120002980BCF1FF3F08BF40F080407047130C7E
:1031300006BF12044FF0100C4FF0000C130E04BF2A
:1031400012020CF1080C130F04BF12010CF1040C55
:10315000930F04BF92000CF1020CD30F04BF520076
:103160000CF1010C11464FF00002A0F11F00A0EB82
:103170000C00704711F0004F08BF704731F000415C
:103180003FF4D5AF0B0C06BF09044FF0100C4FF005
:10319000000C0B0E04BF09020CF1080C0B0F04BF4E
:1031A00009010CF1040C8B0F04BF89000CF1020C17
:1031B000CB0F04BF49000CF1010CCCF1200322FA23
:1031C00003F341EA030102FA0CF2A0EB0C0000F158
:1031D0000100704723F07F4720F07F4C80EA030016
:1031E00000F00040ACEB070303F57C5303F1FF0351
:1031F0002DE9804909B44FEA144324EA03484FEA11
:10320000154B25EA0B4E0FF2042606EB13273E78EA
:1032100003FB0667C7F5000707FB06F64FEAD6462D
:1032200006F102064FEA543707FB066CCCF1005C4E
:103230004FEA1C472CEA074C0CFB06F507FB06F48B
:1032400004EB15464FEA961649085FEA320234BF8E
:1032500000204FF000404FEAD13706FB07FC4FEA51
:103260001C4C0CFB0BF7D21B03FB0CF761EB0701AB
:103270000CFB0EF7B0EB074072EB17420CFB08F7A4
:1032800034BFA2EB0742B2EB074261EB17414FEAB2
:103290000C444FEA910706FB07FC4FEA1C4C0CFB61
:1032A0000BF7B0EBC74072EB573203FB0CF734BFA0
:1032B000A2EBC742B2EBC74261EB57310CFB0EF7F2
:1032C000B0EBC70072EB57720CFB08F734BFA2EBF0
:1032D000C702B2EBC70261EB57714FEA816141EA65
:1032E00092114FEA826242EA90124FEA806004EB48
:1032F000CC04039F4FEAD13706FB07FC4FEA1C4C76
:103300000CFB0BF7D21B03FB0CF761EB07010CFB6B
:103310000EF7B0EB074072EB17420CFB08F734BF17
:10332000A2EB0742B2EB074261EB17414FEA8C5523
:1033300004EB9C244FEA910706FB07FC4FEA1C4C68
:103340000CFB0BF7B0EBC74072EB573203FB0CF7EB
:1033500034BFA2EBC742B2EBC74261EB57310CFB63
:103360000EF7B0EBC70072EB57720CFB08F734BFD7
:10337000A2EBC702B2EBC70261EB57714FEA816162
:1033800041EA92114FEA826242EA90124FEA80606B
:1033900015EB4C2544F100044FEAD13706FB07FC3E
:1033A0004FEA1C4C0CFB0BF7D21B03FB0CF761EB39
:1033B00007010CFB0EF7B0EB074072EB17420CFB5A
:1033C00008F734BFA2EB0742B2EB074261EB1741AB
:1033D0004FEA813141EA92414FEA823242EA904219
:1033E0004FEA80304FEA0C7615EB1C1544F10004CF
:1033F00048EA03434EEA0B484FF0000EB2EB080CCC
:1034000071EB030724BF624639464EEB0E0E4FF0B8
:10341000000B0018524149414BEB0B0BB2EB080C6F
:1034200071EB03077BF1000B24BF624639464EEB7C
:103430000E0E4FF0000B0018524149414BEB0B0BA5
:10344000B2EB080C71EB03077BF1000B24BF624663
:1034500039464EEB0E0E51EA020718BF46F0010640
:1034600016EB0E7655F1000254F1000103D5BDE8CC
:103470008901BDE80088BDE88901BDE80048B619AA
:10348000524141EB0101A3F10103704780807F7E2F
:103490007D7C7B7A797877767675747372717170CA
:1034A0006F6E6E6D6C6C6B6A6A696868676666657C
:1034B0006464636362616160605F5F5E5E5D5D5C0A
:1034C0005C5B5B5A5A59595858575756565555557B
:1034D0005454535352525251515050504F4F4F4EDB
:1034E0004E4D4D4D4C4C4C4B4B4B4A4A4A49494929
:1034F000484848474747474646464545454444446B
:103500004443434343424242424141419C46002B93
:1035100030D477002BD04FEA37071CB503B44FF0F7
:1035200010004FF01001BAF1000F06D0BCF1000FEF
:10353000DCBF40F0080040F008014FF000000FBC75
:10354000BDE810400BF1010BBBF1010F08BF5FEAB2
:10355000170722BF12F1010211F101014FF00041E2
:1035600043F1000300F0004043EA00007047F9D344
:103570005708D0E746EA06464FEA164613F1400FD1
:103580001FDD13F1200FDFBF16430A460021203351
:103590005B42BED0C3F1200746EA06464FEA164614
:1035A00002FA07F746EA070622FA03F2C3F12007F8
:1035B00001FA07F742EA070221FA03F14FF000038C
:1035C000A7E746EA020646EA06464FEA164646EAF4
:1035D0000106BCBF46EA0646360C4FF000034FF02A
:1035E00000024FF0000194E72DE9804C70B49A4638
:1035F000934691E8380007C831EA400C48BF34EAE6
:10360000430C03D5FFF7E6FDFFF780FFF0BCBDE8F4
:10361000008C2DE9804C70B49A46934691E83800AE
:1036200007C810F0804F08BF13F0804F03D100F09F
:1036300005F8FFF76BFFF0BCBDE8008C20F07F477A
:1036400023F07F4C80EA030000F0004007EB0C03FE
:10365000A3F57C53A3F1FE0392F0000F00F0B380BA
:1036600095F0000F00F077802DE901494FEA1140F5
:1036700021EA00484FEA144624EA064700FB06FC0C
:1036800008FB06F607FB08F818EB06484CEB164C4F
:1036900000FB07F718EB07484CEB17404FEA124BBB
:1036A00022EA0B4E4FEA154625EA06470BFB06FCBD
:1036B0000EFB06F607FB0EFE1EEB064E4CEB164C01
:1036C0000BFB07F71EEB074E4CEB174B18EB0B08E9
:1036D00040F1000018EB0E0B58EB000840F1000021
:1036E0008F1A4FF000014FF000063CBFC943661B24
:1036F00014BFB5EB040C00213CBFC943F61B4FEAD5
:10370000174427EA04454FEA1C472CEA074C04FB00
:10371000076205FB07F70CFB05F616EB074642EBC5
:10372000174204FB0CFC16EB0C4642EB1C421BEB55
:10373000060658EB020241414EEA8E0E46EA9E060C
:1037400001D5BDE80189B619524141EB0101A3F150
:103750000103BDE801894FEA144524EA05464FEA12
:10376000114721EA074C05FB07F406FB07F70CFBA2
:1037700006F111EB074144EB174405FB0CFC11EB80
:103780000C4144EB1C444FEA124722EA074C05FB6C
:1037900007F206FB07F70CFB06F616EB074642EBB3
:1037A000174205FB0CFC16EB0C4642EB1C456A1855
:1037B00054F1000148BF7047B619524141EB010175
:1037C000A3F10103704795F0000F37D04FEA114283
:1037D00021EA02464FEA144724EA074C02FB07F1AC
:1037E00006FB07F70CFB06F414EB074441EB17410B
:1037F00002FB0CFC14EB0C4441EB1C414FEA154757
:1038000025EA074C02FB07F506FB07F70CFB06F65B
:1038100016EB074645EB174502FB0CFC16EB0C4676
:1038200045EB1C42121951F1000148BF7047B6190F
:10383000524141EB0101A3F1010370474FEA1445E6
:1038400024EA05464FEA114721EA074C05FB07F138
:1038500006FB07F70CFB06F212EB074241EB1741A0
:1038600005FB0CFC12EB0C4251EB1C414FF0000627
:1038700048BF7047921841EB0101A3F10103704763
:1038800003B401984100009850EAC12018BF0420F9
:103890004A0D18BF40F0010040F2FF72B2EB515FD9
:1038A00008BF40F00200012808BF052002B07047A1
:1038B00030380A2801D201207047002070470000EC
:1038C00010B500290AD00878002807D005487844A8
:1038D000FDF752FA002801D0002010BD02487844BC
:1038E00010BD0000BA070000B207000021F000423E
:1038F00001F00043A2F16052B2F5801F28BFD2F15F
:103900007F6C0BD95FEA001C43EAC20242EB5070A5
:1039100018BF704728BF20F001007047B2F5801F24
:10392000BCBF184670474FEA410C1CF5001F02D27D
:10393000084600F033BB70B500F070F90000008954
:10394000FFF7F6BF4FF00040A0F580007047000081
:1039500010B591EA030F48BF83F0004300F1BA812C
:10396000841A71EB030C05D2121943EB0C03001BF4
:1039700061EB0C014FEA1154A4EB135CDFF81CE17E
:103980001EEA430F18BF9EEA445F00F0748021EAEC
:10399000045123EA0E0343F48013DCF1200E32D3EA
:1039A00022FA0CFE10EB0E0023FA0CFE41EB0E0186
:1039B000CCF1200E03FA0EFE10EB0E00CCF1200E1F
:1039C00051F10001B1F5801F32D201EB045112FA1E
:1039D0000EF2BDE8104058BF7047401C38BF5FEA88
:1039E000420218BF7047002814BF20F0010041F1C7
:1039F00000014FEA410313F5001F38BF7047A1F1E2
:103A0000C04100F059B9012A43EB0302ACF1200C8C
:103A1000DCF11F0E32BF4FF0000E23FA0CF310EB57
:103A2000030041EB0451B4EB115FD0D0A1EB045182
:103A300001F58011490801EB04515FEA30000ED313
:103A400050F1000038BF12FA0EFE08D1BDE8104058
:103A5000C9E7401C38BF5FEA4202CAD1C3E7BDE8EC
:103A600010404FEA410313F5001F38BF7047A1F122
:103A7000C04100F021B99EEA445F08D011EA5E0F10
:103A8000BDE8104004BF01F0004100207047BDE8D0
:103A9000104070B500F0C2F864FBBE3E0000E0FFCD
:103AA000B0FA80F310FA03F10AD0C3F11D0303F555
:103AB00080634FEA03524FEA415002EBD121704735
:103AC0004FF000007047000070B5DFF848C11CEAF5
:103AD000111E1EBF1CEA13159EEA0C0F95EA0C0F6F
:103AE00000F06F8081EA03044EEAD47EAE4421EAFE
:103AF0004C1123EA4C1341F4801143F48013AEF1CE
:103B00007F7EA1FB024CA0FB0365361955EB0C052B
:103B1000A1FB034C4CF10003A0FB021C16EB0C06AE
:103B2000654153F10003094218BF46F0010613F442
:103B3000007F0BD14FEA03314FEA053041EA1551BE
:103B400040EA165034036FF003020AE04FEAC32143
:103B50004FEAC52041EA555140EA5650F4026FF051
:103B6000020202EB2E4201EB025585EACE710AD029
:103B70005FEA440C18BF24F0004450F1000041F10A
:103B8000000120EAD47040F2FE7C624500D270BD94
:103B9000A84214BF4FF080444FF04044002E08BFAD
:103BA0000024BEF1806FA8BFA1F1C041BDE8704004
:103BB00080F2828001F1C04101F000414FF000002D
:103BC00070470CEA13159EEA0C0F18BF95EA0C0F0C
:103BD00006D081EA030E4FF000000EF0004170BDE8
:103BE00000F01CF88900013E00F007B800F009B8A9
:103BF0004FEA430C5FEA5C5C08D081EA030100F005
:103C00005BB84FEA410C5FEA5C5CF6D102494FF0C9
:103C1000000070470000FF070000F87F0EF1020E61
:103C20002EF0030E5EF8046B364205D4012A43EBF6
:103C3000030515F5001F12D8012841EB010C1CF5F6
:103C4000001F0CD80ED14FEAD17C0CEB4C0C0CF1C0
:103C5000020C15F5001F08BF4CEBD37C04E04FF0BD
:103C6000080C01E04FEAD37C0CEB4C0526FA05F674
:103C700006F00706B6F1040C06D20EEB860CBDE882
:103C800070404CF0010C6047DFE80CF0090B0202B9
:103C90004FF00041A1F500214FF0000070BD194622
:103CA0001046012851EB010418BFD4F5001484BF5D
:103CB000002001F0004170BD0808A0F500114FEA96
:103CC0003101704710B591EA030F48BF83F00043FC
:103CD0003FF546AE841A71EB030C07D28CF0004C12
:103CE000121943EB0C03001B61EB0C014FEA11545A
:103CF000A4EB135CDFF8A4E11EEA430F18BF9EEAB1
:103D0000445F00F0B48021EA045123EA6E0352427A
:103D1000C3EB6E0338BF5B1EDCF1200E25D322FA05
:103D20000CFE10EB0E0043FA0CFE41EB0E01CCF141
:103D3000200E03FA0EFE10EB0E00CCF1200E51F116
:103D4000000129D401EB045112FA0EF2BDE8104033
:103D500058BF7047401C1CBFB2F1004F704700288D
:103D60000CBF491C20F00100704712EB020E43EB20
:103D7000030218BF4FF0010E4EEA4202ACF1200CD4
:103D8000DCF11E0E56D943FA0CFE10EB0E00CCF1FE
:103D90001E0E51F1FF31D5D50EF1010E12FA0EFEB5
:103DA000404141EB010101EB445C5FEA5C5C10D9EE
:103DB00001EB045110EBDE7038BFBEF1004FBDE8DF
:103DC000104018BF704700280CBF491C20F00100AC
:103DD000704734D24FEAD42C24F4006411F500115A
:103DE0001BD0B1FA81F20B3AA41AA41ED2F120031F
:103DF000914030FA03F31943904001EBCC7101EB91
:103E00000451002CBDE81040A8BF704701F1C0412B
:103E100001F000414FF000007047B0FA80F310FA53
:103E200003F102D1BDE810407047E41A173C480581
:103E3000C90AE2E701EB0451BDE8104070474910A0
:103E40004FEA300001EB0451BDE8104002E04FF0B2
:103E5000000170474A0008BF0042F8D0B2F5001FC9
:103E600028BF704701F000414FF0000070479EEA04
:103E7000445F07D011EA5E0FBDE8104004BF002187
:103E800000207047BDE8104070B5FFF7C7FE00BFC7
:103E900040DFF63E104683F0004170470000E0FF2F
:103EA00043004FEAD30C4FEA3C0C43401FBF40078E
:103EB0000CF1605113F0FE4F70471CF0006F03D1FE
:103EC0000CF00041002070470CF0004343EA5070B2
:103ED00040EACC0010B500F00EF800BF00000092E0
:103EE0004FEA0001FFF7E8BE4FF00041A1F50021C5
:103EF0004FF0000070470EF1020E2EF0030E5EF838
:103F0000044B244204D44FEA4102B2F17F4F11D84E
:103F10004FEA4003B3F17F4F0CD80ED14FEAD07C6B
:103F20000CEB4C0C0CF1020CB2F17F4F08BF4CEBC8
:103F3000D17C04E04FF0080C01E04FEAD17C0CEB9F
:103F40004C0324FA03F404F00704B4F1040C06D281
:103F50000EEB840CBDE810404CF0010C6047DFE82C
:103F60000CF0070802024FF00040A0F5800010BDE1
:103F70000846420018BFD2F1807288BF00F00040AE
:103F800010BDF1EE100A4FF6FF71C0F2C03120EA09
:103F9000010040F04070E1EE100A7047FF2141EA55
:103FA000D050C0057047FCF763BC04000008000057
:103FB00000000000000200010000100002400000AC
:103FC000000000A00000000005400000000000C844
:103FD000000000000C4000000000409C00000000B9
:103FE000194000000020BCBE00000000344000006A
:103FF000BFC91B8E00000004B5400000504BCFD05D
:104000006607E2CF010000006C4100003E8251AA29
:10401000DFEEA73401000000D9420000DCB5A0E2C9
:104020003A301F97FFFFFFFFB4450000FD25A0C8F1
:10403000E9A3C14FFFFFFFFFFF3F0000000000802A
:1040400000000000FF3F00000000008000000000B2
:104050000000000000000000010203040607080938
:104060000000000001020304A84000080000002036
:104070001000000028020008B840000810000020CE
:10408000D8060000480200081C00000043000000A1
:10409000F8FFFFFF0C0000000E0000000F00000002
:1040A0002E000000000000000100000010000000D1
:0840B0000024F40000000000F0
:04000005080001C529
:00000001FF
